:100000000C94C20A0C942E9A0C945F9A0C94909AB9
:100010000C94ED0A0C94ED0A0C94ED0A0C94ED0A84
:100020000C94831D0C94ED0A0C94ED0A0C94ED0ACB
:100030000C94ED0A0C94ED0A0C94ED0A0C94ED0A64
:100040000C94ED0A0C94ED0A0C94C19A0C94ED0AF0
:100050000C94469D0C94DC9D0C94ED0A0C94ED0AD6
:100060000C94ED0A0C94ED0A0C9449980C94ED0A4A
:100070000C947F9D0C941B9E0C94ED0A0C94ED0A3D
:100080000C94ED0A0C94ED0A0C94ED0A4E54502099
:1000900053796E63696E672E2E2E007777772E6701
:1000A0006F6F676C652E636F6D002E747874006DD2
:1000B000616B65722E69667474742E636F6D002FA8
:1000C000747269676765722F737072696E6B6C65A5
:1000D000722F776974682F6B65792F00227D00522B
:1000E00065626F6F7465642E204465766963652070
:1000F00049503A2000252E005761746572206C65C6
:1001000076656C20757064617465643A200045788A
:100110007465726E616C20495020757064617465FD
:10012000643A20002C20766F6C756D653A2000468D
:100130006C6F7720636F756E743A200064652D6173
:10014000637469766174656400616374697661746F
:1001500065642E005261696E2073656E736F722044
:10016000005261696E2064656C61792000252077FA
:1001700061746572206C6576656C2E0020776974F9
:1001800068200050726F6772616D20004175746F56
:100190006D61746963616C6C792073636865647503
:1001A0006C656420004D616E75616C6C79207363C1
:1001B000686564756C6564200020466C6F772072FA
:1001C0006174653A2000207365636F6E64732E005E
:1001D000206D696E75746573200020636C6F7365A4
:1001E000642E2049742072616E20666F7220005365
:1001F000746174696F6E20007B2276616C75653165
:10020000223A22002020206C2020206C706D2020BB
:1002100020206D41002020204720202067706D2085
:100220002020206D4100692000302E205465737419
:10023000202831206D696E29002E20002000486F93
:100240006C6420423320746F2073746172740043B5
:100250006C69636B20423320746F206C6973740087
:1002600052756E20612050726F6772616D3A00287E
:100270006C737763290028656970290020286F73E3
:10028000697029003A002867776970290077746FD0
:100290007074732E7478740073746E732E6461744A
:1002A0000069666B65792E74787400667776000055
:1002B000747A0000006E74700000646863700069F6
:1002C000703100006970320000697033000069709D
:1002D00034000067773100006777320000677733BA
:1002E00000006777340000687030000068703100EB
:1002F000006877760000657874000073657100000F
:1003000073647400006D617300006D746F6E006D36
:10031000746F6600757273000072736F0000776C03
:1003200000000064656E00006970617300646576AA
:100330006964636F6E00006C6974000064696D002D
:1003400000627374000075777400006E7470310081
:100350006E747032006E747033006E747034006CA2
:10036000670000006D617332006D746F6E326D74E2
:100370006F663266776D000066707230006670726C
:1003800031007265000000646E733100646E733278
:1003900000646E733300646E733400736172000026
:1003A0006966650000756673000075666C0000750F
:1003B000666100007566720000756667000075660C
:1003C0006D00007573310000756431000075733283
:1003D000000075643200006373690000637361009C
:1003E0000075637200007363610000736363000053
:1003F00066616400006877730000667773000063CD
:100400006D610000636664000063666600007572DB
:10041000740000666D7300006C6E7300006C6E6794
:100420000000726573657400006C0101FFFFFFFF3F
:10043000FFFFFFFFFFFF000501FF30FFFFFF02FA94
:100440000101FFFFFFFFFAFFFFFFFFFF0130FFFF8A
:1004500000FFFF01FFFFFFFF01FF02010264FFFF3A
:100460000201020102026401FF02FFFF01FFFF021D
:10047000030101014669726D7761726520766572CC
:1004800073696F6E54696D65207A6F6E65202847B9
:100490004D54293A456E61626C65204E545020736C
:1004A000796E633F456E61626C6520444843503FFE
:1004B000202020205374617469632E6970313A20C2
:1004C000202020205374617469632E6970323A20B1
:1004D000202020205374617469632E6970333A20A0
:1004E000202020205374617469632E6970343A208F
:1004F00020202020476174657761792E6970313A38
:1005000020202020476174657761792E6970323A26
:1005100020202020476174657761792E6970333A15
:1005200020202020476174657761792E6970343A04
:10053000202020204854545020506F72743A2020BC
:10054000202020202D2D2D2D2D2D2D2D2D2D2D2D0F
:100550002D2D2D2D4861726477617265207665724C
:1005600073696F6E23206F66206578702E20626F2E
:100570006172643A2D2D2D2D2D2D2D2D2D2D2D2DEE
:100580002D2D2D2D53746E2E2064656C61792028DD
:10059000736563294D6173746572203120284D6144
:1005A0007331293A4D61733120206F6E2061646A86
:1005B0007573743A4D617331206F66662061646AA9
:1005C0007573743A53656E736F7220747970653AFF
:1005D000202020204F70656E20456E61626C65287A
:1005E0004E4F293F5761746572696E67206C65765E
:1005F000656C3A2044657669636520656E61626C5E
:1006000065643F2049676E6F726520706173737710
:100610006F72643F4465766963652049443A2020DF
:10062000202020204C434420636F6E7472617374E9
:100630003A2020204C4344206272696768746E65DA
:1006400073733A204C43442064696D6D696E673A58
:1006500020202020444320626F6F73742074696DE2
:10066000653A20205765617468657220616C676F18
:100670002E3A20204E5450207365727665722E6992
:1006800070313A204E5450207365727665722E692F
:1006900070323A204E5450207365727665722E691E
:1006A00070333A204E5450207365727665722E690D
:1006B00070343A20456E61626C65206C6F676769C3
:1006C0006E673F204D6173746572203220284D6142
:1006D0007332293A4D61733220206F6E2061646A53
:1006E0007573743A4D617332206F66662061646A77
:1006F0007573743A4669726D77617265206D696EC3
:100700006F723A2050756C736520726174653A207F
:10071000202020202D2D2D2D2D2D2D2D2D2D2D2D3D
:100720002D2D2D2D41732072656D6F7465206578B8
:10073000742E3F20444E53207365727665722E6985
:1007400070313A20444E53207365727665722E697B
:1007500070323A20444E53207365727665722E696A
:1007600070333A20444E53207365727665722E6959
:1007700070343A205370656369616C20526566720B
:100780006573683F494654545420456E61626C65F8
:100790003A20466C6F7753656E736F723A20202053
:1007A0002020556E697447616C6C6F6E3F2020206D
:1007B0002020466C6F77416C61726D5479706520B2
:1007C0002020466C6F7752616E67652520202020BF
:1007D000202046726565466C6F772067616C20202B
:1007E000202046726565466F77206D696E20202057
:1007F0002020536F696C53656E736F72313A2020FD
:1008000020204F70656E20456E61626C65284E4FEA
:10081000293F536F696C53656E736F72323A2020B3
:1008200020204F70656E20456E61626C65284E4FCA
:10083000293F43757272656E742053656E736F72D3
:100840003F2043757272656E7420416C61726D3F1A
:10085000202043757272416C61726D52616E6765E2
:100860002025537461727443616C696272617469AA
:100870006F6E53656E644C6F6744617973202020FE
:100880002020466174616C44697361626C655374C5
:100890006174534748572076657273696F6E3A20CA
:1008A0002020534746572076657273696F6E3A2051
:1008B0002020436C69656E74206D6F64653F202055
:1008C0002020436C6F7564526566726573682028DA
:1008D00073294661737420526566726573682028B7
:1008E00073295374617475735265706F727454799F
:1008F0007065466C6173684D656D6F72795479707F
:10090000653F4C43442073697A6520323078343F28
:1009100020204C616E67756167652048554E3F2009
:100920002020466163746F72792072657365743F2D
:10093000202000207365630025004E6F0059657309
:1009400000206D73002E002B003030003A002D0087
:100950002B000020202020002D44697361626C650B
:1009600064212D003A0045004D433A0020284D41B6
:100970004329002D002E004D6F6E00547565005701
:1009800065640054687500467269005361740053D1
:10099000756E00002D0020002020003A002000206D
:1009A00000486F6C6420423320746F207361766559
:1009B0000042312F42323A2B2F2D2C2042333A2D38
:1009C0003E003D3D536574204F7074696F6E733DFA
:1009D0003D00506C6561736520576169742E2E2E41
:1009E00000526573657474696E672E2E2E002F0099
:1009F0002A002F636D003F70773D2445267369649C
:100A00003D244426656E3D244426743D24440065FF
:100A10006E6761676520626F6F73746572004572FF
:100A2000726F7220436F64653A203078324400530D
:100A3000442063617264206D697373696E6700435B
:100A40006F6E6E656374696E672E2E2E00466C6F36
:100A5000772053746F707065642020202046726682
:100A60006C6F77205175616E74416C726D46726661
:100A70006C6F772054696D65416C61726D4C656176
:100A80006B61676520416C61726D2020204C65614F
:100A90006B6167652053746F707065642048696787
:100AA0006820466C6F7720416C61726D204C6F77C7
:100AB00020466C6F7720416C61726D2046617461D5
:100AC0006C20466C6F7720416C61726D4869676875
:100AD0002043757272656E7420416C6D4C6F772087
:100AE00043757272656E7420416C726D0063766A34
:100AF000636470637063726D7075706A70636F6A3F
:100B00006F73706A73636D63736A6E6A656A6C642F
:100B10006C737563756A61003C7363726970743ECF
:100B200077696E646F772E6C6F636174696F6E3D69
:100B3000222F223B3C2F7363726970743E0A00229D
:100B4000726573756C74223A24447D002272657359
:100B5000756C74223A24447D0024460022244622E7
:100B60003A24447D007D002C2273746174696F6E99
:100B700073223A7B002C22737461747573223A7B62
:100B8000002C226F7074696F6E73223A7B002C22E6
:100B900070726F6772616D73223A7B0022736574A5
:100BA00074696E6773223A7B00646179005D00248A
:100BB00053002C005B007479706500656E640073EF
:100BC000746172740068697374007400656E0073F8
:100BD0006964005D2C226E73746174696F6E732298
:100BE0003A24447D002C0024440022736E223A5B98
:100BF00000637077006E70770077746F00747474A0
:100C00000069666B65790077746B6579006C6F635A
:100C100000777370006A737000726500726400651B
:100C20006E007262740072736E003C6D65746120B8
:100C30006E616D653D2276696577706F72742220F2
:100C4000636F6E74656E743D2277696474683D6489
:100C500065766963652D77696474682C696E69745B
:100C600069616C2D7363616C653D312E302C6D694B
:100C70006E696D756D2D7363616C653D312E302C21
:100C8000757365722D7363616C61626C653D6E6F27
:100C9000223E0D0A003C73637269707420737263A4
:100CA0003D2224452F686F6D652E6A73223E3C2FCE
:100CB0007363726970743E0A3C2F626F64793E0AF6
:100CC0003C2F68746D6C3E00766172207665723DD3
:100CD00024442C697061733D24443B3C2F73637240
:100CE0006970743E0A003C21444F435459504520DA
:100CF00068746D6C3E0A3C68746D6C3E0A3C6865B5
:100D000061643E0A24463C2F686561643E0A3C6289
:100D10006F64793E0A3C7363726970743E007D00B3
:100D20002C2269666B6579223A22245322002C22F8
:100D300077746F223A7B24537D005D002C005B2486
:100D4000442C244C2C244C5D00305D2C22707322EA
:100D50003A5B0024442C00227362697473223A5B6C
:100D60000022666C637274223A244C2C22666C77E3
:100D70007274223A24442C002263757272223A243F
:100D8000442C002264657674223A244C2C226E6234
:100D90007264223A24442C22656E223A24442C2286
:100DA0007264223A24442C227273223A24442C2264
:100DB00072647374223A244C2C226C6F63223A22A0
:100DC0002445222C2277746B6579223A222445220D
:100DD0002C2273756E72697365223A24442C227337
:100DE000756E736574223A24442C22656970223A28
:100DF000244C2C226C7763223A244C2C226C73777F
:100E000063223A244C2C226C72756E223A5B244485
:100E10002C24442C24442C244C5D2C003C666F7202
:100E20006D206E616D653D6F6620616374696F6EE4
:100E30003D6375206D6574686F643D6765743E3C05
:100E40007461626C652063656C6C73706163696E5C
:100E5000673D223132223E3C74723E3C74643E3C1B
:100E6000623E4A6176615363726970743C2F623EE0
:100E70003A3C2F74643E3C74643E3C696E707574F9
:100E800020747970653D746578742073697A653D66
:100E90003430206D61786C656E6774683D34302045
:100EA00076616C75653D22244522206E616D653D3D
:100EB0006A73703E3C2F74643E3C2F74723E3C74E7
:100EC000723E3C74643E44656661756C743A3C2FB6
:100ED00074643E3C74643E24533C2F74643E3C2F47
:100EE00074723E3C74723E3C74643E3C623E576594
:100EF00061746865723C2F623E3A3C2F74643E3CDC
:100F000074643E3C696E70757420747970653D74CC
:100F10006578742073697A653D3430206D61786C32
:100F2000656E6774683D34302076616C75653D226E
:100F3000244522206E616D653D7773703E3C2F74B1
:100F4000643E3C2F74723E3C74723E3C74643E447A
:100F5000656661756C743A3C2F74643E3C74643E03
:100F600024533C2F74643E3C2F74723E3C74723E9A
:100F70003C74643E3C623E50617373776F72643CB4
:100F80002F623E3A3C2F74643E3C74643E3C696E72
:100F900070757420747970653D70617373776F72CA
:100FA000642073697A653D3332206E616D653D70F2
:100FB000773E203C696E70757420747970653D735E
:100FC00075626D69743E3C2F74643E3C2F74723EB2
:100FD0003C2F7461626C653E3C2F666F726D3E3CC7
:100FE000736372697074207372633D687474707394
:100FF0003A2F2F75692E6F70656E737072696E6B04
:101000006C65722E636F6D2F6A732F6861736865EC
:10101000722E6A733E3C2F7363726970743E005D7A
:101020007D00225D00225D2C00245300244C5D2CA9
:101030002200244C2C0024445D2C5B0024442C0012
:101040005B24442C24442C24442C5B00226E7072BC
:101050006F6773223A24442C226E626F617264734C
:10106000223A24442C226D6E70223A24442C226DA4
:101070006E7374223A24442C22706E73697A65224E
:101080003A24442C227064223A5B002C2264657856
:1010900070223A24442C226D657870223A24442C24
:1010A00022687774223A24447D002C0022245322A3
:1010B0003A24440050726F6772616D20006E616D5A
:1010C0006500706964007069640070696400757718
:1010D0007400706964007364007374007369640061
:1010E0007D00222444223A7B227374223A24442C29
:1010F000227364223A222453227D002C005D2C228C
:101100006D61786C656E223A24447D002C002224A7
:1011100053220022736E616D6573223A5B00737413
:101120006E5F7370650073746E5F61733200737409
:101130006E5F6173310073746E5F736571007374F9
:101140006E5F646973006D61736F70320069676E02
:101150006F72655F7261696E006D61736F70005DC3
:101160002C002C00244400222446223A5B00707795
:1011700000485454502F312E3120323030204F4B04
:101180000D0A00436F6E74656E742D547970653A64
:10119000206170706C69636174696F6E2F6A736F20
:1011A0006E0D0A436F6E6E656374696F6E3A2063ED
:1011B0006C6F73650D0A004163636573732D436F34
:1011C0006E74726F6C2D416C6C6F772D4F72696706
:1011D000696E3A202A0D0A0043616368652D436FEA
:1011E0006E74726F6C3A206D61782D6167653D3069
:1011F0002C206E6F2D63616368652C206E6F2D73DC
:10120000746F72652C206D7573742D726576616CC8
:1012100069646174650D0A007B00244624462446F7
:1012200024460D0A00436F6E74656E742D547970F8
:10123000653A20746578742F68746D6C0D0A00240B
:10124000462446244624460D0A00000108000604F0
:10125000000145000082000040002000504F535420
:10126000202446245320485454502F312E300D0A48
:10127000486F73743A2024460D0A24462453416370
:10128000636570743A202A2F2A0D0A436F6E7465C5
:101290006E742D4C656E6774683A2024440D0A43C1
:1012A0006F6E74656E742D547970653A206170703C
:1012B0006C69636174696F6E2F6A736F6E0D0A0DCE
:1012C0000A245300474554202446245320485454AC
:1012D000502F312E300D0A486F73743A2024460D7A
:1012E0000A24460D0A0D0A0000504F53542024468C
:1012F000245320485454502F312E300D0A486F7318
:10130000743A2024530D0A244624534163636570C4
:10131000743A202A2F2A0D0A436F6E74656E742D5D
:101320004C656E6774683A2024440D0A436F6E74EE
:10133000656E742D547970653A206170706C6963C4
:101340006174696F6E2F6A736F6E0D0A0D0A2453F4
:1013500000474554202446245320485454502F31EC
:101360002E300D0A486F73743A2024530D0A244618
:101370000D0A0D0A004163636570743A2074657844
:10138000742F68746D6C004163636570743A2074E7
:101390006578742F68746D6C00E30004FA00010036
:1013A0000000012A002F776561746865720024448B
:1013B0002E70793F6C6F633D2445266B65793D2423
:1013C00045266677763D24442677746F3D24530086
:1013D000726400747A007363616C65006569700003
:1013E00073756E7365740073756E72697365007CD6
:1013F0003C3E5E2B3D3F2F5B5D3B2C2A225C000078
:10140000002100240027002A0000002200250028D7
:10141000002B000000200023002600290002020209
:101420000202020202040404040404040403030389
:10143000030303030301010101010101010102048E
:10144000081020408001020408102040800102049E
:101450000810204080804020100804020100000095
:101460000102000000000000000403070600000065
:101470000000000000000000000000000000407AB2
:1014800010F35A00A0724E18090010A5D4E800000D
:10149000E87648170000E40B54020000CA9A3B00AB
:1014A0000000E1F505000080969800000040420F22
:1014B000000000A08601000000102700000000E8E6
:1014C00003000000006400000000000A00000000AB
:1014D000000100000000002C76D888DC674F08234C
:1014E000DFC1DFAE59E1B1B796E5E3E453C63AE6B2
:1014F00051997696E8E6C28426EB898C9B62ED4092
:101500007C6FFCEFBC9C9F40F2BAA56FA5F49005E0
:101510005A2AF75C936B6CF9676DC11BFCE0E40D14
:1015200047FEF520E6B500D0ED902E030094357708
:10153000050080841E080000204E0A000000C80C30
:10154000333333330F986E12831141EF8D21148999
:101550003BE65516CFFEE6DB18D1844B381BF77CF3
:101560001D901DA4BBE424203284725E228100C938
:10157000F124ECA1E53D27000217CB1D6638FF8062
:10158000E596859F11241FBECFEFD0E4DEBFCDBF0F
:1015900019E0A0E0B1E0E2E6FBE401E00BBF02C02D
:1015A00007900D92AA30B107D9F71BBE19E1AAE046
:1015B000B9E001C01D92AC3EB107E1F715E1C4E806
:1015C000D5E104C02297FE010E9474A5C837D10757
:1015D000C9F70E941BA00C94AFA50C940000EF92D9
:1015E000FF920F931F93F22FF02E47FD02C0E4E00D
:1015F00001C0E4E1242F332727FD309537FF03C0D6
:10160000309521953F4F4F2D512F0F2FEE2E0E94D9
:101610009A0E8F2D912F1F910F91FF90EF900895AB
:10162000FC0188279927E89421912032E9F3293099
:1016300010F02E30C8F32B3241F02D3239F468947B
:1016400004C00E946C0C820F911D219120532A30FE
:10165000C0F31EF4909581959F4F08951F93FC0150
:1016600099278827BC01E89411911032E9F31930C9
:1016700010F01E30C8F31B3251F01D3249F468944B
:1016800006C00E94570C610F711D811D911D1191A3
:1016900010531A30B0F33EF4909580957095619593
:1016A0007F4F8F4F9F4F1F910895FB01DC0102C0B8
:1016B00005900D9241505040D8F70895FB01DC0190
:1016C0000D900020E9F7119705900D920020E1F7A9
:1016D0000895FB01DC0105900D920020E1F70895CB
:1016E0004AE059E00E94CC0B0895FB01DC0104C0E4
:1016F0008D910190801921F441505040C8F7881B0A
:10170000990B0895FB01DC0102C001900D9241503C
:101710005040D8F70895DC0101C06D93415050400E
:10172000E0F70895FB01DC010D900020E9F7119727
:1017300001900D920020E1F70895FC018191861738
:1017400021F08823D9F7992708953197CF0108957B
:10175000FB01DC0101900D920020E1F70895FB01EF
:10176000DC014150504030F08D910190801919F406
:101770000020B9F7881B990B0895FB01DC0141504B
:10178000504048F001900D920020C9F701C01D9211
:1017900041505040E0F70895009731F4DA018D91FF
:1017A0009C91009709F40EC0DC01FB013D91219151
:1017B000222319F03217C9F3FACF332331F4DA01B7
:1017C0001D921C928827992708951197AF93BF9374
:1017D000FB013D912191321771F4332321F48827C5
:1017E0009927119702C01E921196FA01A193B08316
:1017F0009F918F910895222369F7EACFA0E0B0E08E
:10180000E4E0FCE00C9482A57C01EB018A01690113
:1018100009C0CE012196F6010995F70181937F0158
:101820000150104001151105A1F7CDB7DEB7E8E072
:101830000C949EA5A0E0B0E0E0E2FCE00C9482A550
:10184000EC017B018A01690109C0CE012196F701F3
:1018500061917F01F60109950150104001151105B4
:10186000A1F7CDB7DEB7E8E00C949EA5FB019F0180
:10187000E8944230C4F04532B4F44A3029F497FB7E
:101880001EF4909581959F4F642F77270E940EA597
:10189000805D8A330CF0895D8193CB010097A1F7BD
:1018A00016F45DE251931082C9010C94EA10592F8D
:1018B000482F372F262F660F771F881F991F660F17
:1018C000771F881F991F620F731F841F951F660F54
:1018D000771F881F991F08957AE0979F902D879F03
:1018E000802D910D11240895FA01CF93FF93EF936A
:1018F0002230CCF02532BCF4C22F2C2F33274427C2
:101900005527FF93EF930E9435A5EF91FF91605DFE
:101910006A330CF0695D6193B901CA01605070408F
:101920008040904051F710828F919F91CF910C94FD
:10193000EA10AEE0B0E0EFE9FCE00C9486A50D897A
:101940001E8986E08C831A8309838FEF9FE79E832D
:101950008D839E01275E3F4FCE0101966F89788D62
:10196000A9010E94BD0C2F813885020F131FF801B9
:1019700010822E96E4E00C94A2A5ABE0B0E0E3EC7C
:10198000FCE00C9478A53C012B015A01FC01178264
:101990001682838181FD03C06FEF7FEFC6C19AE09D
:1019A000892E1E010894211C311CF3012381F201B0
:1019B00023FD859123FF81912F01882309F4B2C172
:1019C000853239F423FD859123FF81912F018532E2
:1019D00029F490E0B3010E94FA10E7CF982FFF247A
:1019E000EE249924FFE1FF15D0F09B3269F09C3280
:1019F00028F4903259F0933291F40EC09D3249F0A0
:101A0000903369F441E024C052E0F52A84E0F82ADA
:101A100028C098E0F92A25C0E0E1FE2A22C0F7FCA0
:101A200029C0892F80538A3070F4F6FE05C0989C37
:101A3000902C1124980E15C0E89CE02C1124E80E7F
:101A4000F0E2FF2A0EC09E3229F4F6FC6BC140E49E
:101A5000F42A07C09C3619F450E8F52A02C09836DB
:101A600049F4F20123FD959123FF91912F019923D0
:101A700009F0B8CF892F8554833018F08052833015
:101A800038F444E050E0A40EB51E5FE359830FC064
:101A9000933631F0933779F0933509F056C020C072
:101AA000F5018081898342E050E0A40EB51E6101FA
:101AB00001E010E012C0F501C080D180F6FC03C047
:101AC0006FEF7FEF02C0692D70E042E050E0A40E9E
:101AD000B51EC6010E94DF108C015FE7F52214C01D
:101AE000F501C080D180F6FC03C06FEF7FEF02C02C
:101AF000692D70E042E050E0A40EB51EC6010E94C0
:101B0000D4108C0150E8F52AF3FE07C01AC080E219
:101B100090E0B3010E94FA10EA948E2D90E008172D
:101B20001907A8F30EC0F601F7FC8591F7FE819125
:101B30006F0190E0B3010E94FA10E110EA940150A5
:101B400010400115110579F7EAC0943611F0993665
:101B500069F5F7FE08C0F50120813181428153818A
:101B600084E090E00AC0F501808191819C014427C6
:101B700037FD4095542F82E090E0A80EB91E9FE6F5
:101B8000F92257FF09C050954095309521953F4F58
:101B90004F4F5F4FE0E8FE2ACA01B901A1012AE0D8
:101BA00030E00E942611D82ED21840C0953729F473
:101BB0001F2D1F7E2AE030E01DC01F2D197F9F368C
:101BC00061F0903720F4983509F0ACC00FC0903721
:101BD00039F0983709F0A6C004C028E030E00AC008
:101BE000106114FD146020E130E004C014FD1660A3
:101BF00020E132E017FF08C0F50160817181828128
:101C0000938144E050E008C0F50180819181BC01DE
:101C100080E090E042E050E0A40EB51EA1010E94D9
:101C20002611D82ED2188FE7F82EF122F6FE0BC01F
:101C30005EEFF522D91438F4F4FE07C0F2FC05C0BB
:101C40008FEEF82202C01D2D01C0192DF4FE0DC02B
:101C5000FE01ED0DF11D8081803319F499EEF9221A
:101C600008C01F5FF2FE05C003C08F2D867809F003
:101C70001F5F0F2DF3FC14C0F0FE0FC01E1510F0F7
:101C80009D2C0BC09D2C9E0C911A1E2D06C080E22F
:101C900090E0B3010E94FA101F5F1E15C0F304C04C
:101CA0001E1510F4E11A01C0EE2404FF0FC080E3FA
:101CB00090E0B3010E94FA1002FF1DC001FD03C0B5
:101CC00088E790E00EC088E590E00BC0802F867812
:101CD00091F001FF02C08BE201C080E2F7FC8DE2CF
:101CE00090E0B3010E94FA1006C080E390E0B301D7
:101CF0000E94FA109A94D914C0F3DA94F101ED0D10
:101D0000F11D808190E0B3010E94FA10DD20A9F757
:101D100006C080E290E0B3010E94FA10EA94EE203F
:101D2000C1F743CEF30166817781CB012B96E2E1C7
:101D30000C9494A5A9E0B0E0E0EAFEE00C947CA548
:101D40006A01122FA02EBE2C2BE3201718F42CE3CF
:101D5000922E02C0902E9394AE014F5F5F4F27E00A
:101D6000092D0E94FC0FBC018981E82EFF24C701C8
:101D700089709070019711F4ADE209C0B1FE02C004
:101D8000ABE205C0B0FC02C0A0E001C0A0E2E3FEEF
:101D90003BC0AA2311F423E001C024E0211710F076
:101DA00020E002C0121B212FEB2CB4FE02C0322F08
:101DB0000AC0F601322F80E202C0819331503323F2
:101DC000E1F7C20ED11CAA2319F0F601A1936F010D
:101DD000F6013196E2FE05C09EE4D6019C9381E4B3
:101DE00004C09EE6D6019C9381E611968C93918364
:101DF0003296DF01832F90E202C09D9381508823A9
:101E0000E1F7E30FF11D40C0E2FE42C0AA2311F446
:101E100023E001C024E0211710F020E002C0121BD3
:101E2000212FEB2CB4FE02C0922F0AC0F601922F94
:101E300080E202C0819391509923E1F7C20ED11C38
:101E4000AA2319F0F601A1936F01F6013196E2FE83
:101E500008C089E4D6018C938EE411968C9386E4B5
:101E600007C089E6D6018C938EE611968C9386E6A0
:101E700081833296DF01892F20E202C02D938150A9
:101E80008823E1F7E90FF11D10822EEF3FEFAFC07D
:101E9000161617061CF041E050E003C0AB014F5F7F
:101EA0005F4FAA2019F480E090E003C08A2D90E0F3
:101EB000019620E030E0AA2311F021E030E0240F69
:101EC000351F280F391F812F90E02817390714F08C
:101ED00020E002C0121B212F4B2D50E0CA0180715F
:101EE0009070B4FC0DC0B3FC0BC0F601322F40E281
:101EF00002C0419331503323E1F7C20ED11C01C01F
:101F0000322FAA2319F0F601A1936F01892B11F04A
:101F1000132F0AC0F601132F80E302C081931150E2
:101F20001123E1F7C30ED11C092D060FBA8090E1F1
:101F3000892E912C8E209F20E4FE04C0F1E3BF1671
:101F400009F40150101614F001E003C0093008F044
:101F500008E09B0177FF02C020E030E0CB01019652
:101F6000821B930BFE013196E80FF91F8EE2F82ECB
:101F70003B01601A71088A2D90E044275527481BC1
:101F8000590B8FEF2F3F380719F4D601FD926D01E1
:101F9000621773072CF06216730614F4808101C077
:101FA00080E32150304031962417350724F0D601C4
:101FB0008D936D01E6CF2617370749F4B5E3BB15BE
:101FC00028F0BB1621F48114910409F481E3F60191
:101FD0008193D601812F90E202C09C93815011968B
:101FE0008823D9F7E10FF11D108220E030E0C9010C
:101FF0002996EEE00C9498A5283008F027E03327C6
:10200000DA01990F311D87FD916000966105710518
:1020100039F432602E5F3D9330E32A95E1F708955D
:102020009F3F30F080387105610509F03C5F3C5FEF
:102030003D93913008F08068911DDF93CF931F93FB
:102040000F93FF92EF92192F987F9695E92F96950F
:102050009695E90FFF27E952FB4E99273327EE2487
:10206000FF24A701E70105900894079428F4360F90
:10207000E71EF81E491F511D660F771F881F991F05
:102080000694A1F70590079428F4E70EF81E491F5F
:10209000561FC11D770F881F991F661F0694A1F751
:1020A0000590079428F4F80E491F561FC71FD11D2D
:1020B000880F991F661F771F0694A1F70590079454
:1020C00020F4490F561FC71FD81F990F661F771F8F
:1020D000881F0694A9F784911095177041F0D69542
:1020E000C79557954795F794E7941A95C1F7EDE78B
:1020F000F4E168941590159135916591959105904D
:102100007FE27395E118F10A430B560BC90BD00916
:10211000C0F7E10CF11E431F561FC91FD01D7EF4EE
:10212000703311F48A95E6CFE894015030F0080F2F
:102130000AF40027021708F4202F2395022F7A3380
:1021400028F079E37D932A95E9F710C07D932A95CD
:1021500089F6069497956795379517951794E11822
:10216000F10A430B560BC90BD00998F023957E91C9
:1021700073957A3308F070E37C932013B8F77E915F
:1021800070617D9330F0839571E37D9370E32A95C0
:10219000E1F71124EF90FF900F911F91CF91DF9104
:1021A000992787FD90950895FC0105906150704036
:1021B0000110D8F7809590958E0F9F1F0895FC0110
:1021C0006150704001900110D8F7809590958E0F66
:1021D0009F1F0895DC01FC01672F71917723E1F7C0
:1021E000329704C07C916D9370836291AE17BF07E4
:1021F000C8F308950F931F93CF93DF938C01EB01E6
:102200008B8181FF1BC082FF0DC02E813F818C819D
:102210009D812817390764F4E881F9810193F983D6
:10222000E88306C0E885F985802F0995892B31F46C
:102230008E819F8101969F838E8302C00FEF1FEFD7
:10224000C801DF91CF911F910F910895FA01AA273C
:10225000283051F1203181F1E8946F936E7F6E5FE9
:102260007F4F8F4F9F4FAF4FB1E03ED0B4E03CD097
:10227000670F781F891F9A1FA11D680F791F8A1F7A
:10228000911DA11D6A0F711D811D911DA11D20D0E1
:1022900009F468943F912AE0269F11243019305D9B
:1022A0003193DEF6CF010895462F4770405D41938C
:1022B000B3E00FD0C9F7F6CF462F4F70405D4A33D9
:1022C00018F0495D31FD4052419302D0A9F7EACFA1
:1022D000B4E0A6959795879577956795BA95C9F7D0
:1022E00000976105710508959B01AC010A2E0694C3
:1022F0005795479537952795BA95C9F7620F731F7C
:10230000841F951FA01D08950E941F2E08950E94EE
:10231000CC360895DF93CF9300D000D000D0CDB756
:10232000DEB7DE011196E5E9F8E086E001900D9256
:102330008150E1F786E191E0E2E7F9E0DF019C01FD
:102340001D9221503040E1F780910C09833019F43F
:1023500062E679E003C0BE016F5F7F4F84E490E0E6
:1023600043E450E00E94E57280910C09833039F01B
:1023700082E799E0BE016F5F7F4F0E94DE8081E0BF
:1023800080939C0980939D0986E080939E098091AB
:10239000190990911A09A0911B09B0911C09809309
:1023A000A0099093A109A093A209B093A3098091D9
:1023B0000C09833039F48CE999E00C9662E579E0F8
:1023C0000E94E68088EB99E06CE479E00E94DE8070
:1023D000A8E8BAE0ECEFF7E002C081918D9338E015
:1023E000E230F307D1F790910C09992311F083E0C3
:1023F00001C081E080938E0A8DE380938F0A87E08D
:102400008093900A81E08093910AA2E9BAE0ECE41B
:10241000F9E002C081918D9389E0E235F807D1F7A8
:102420008CE08093980A85E08093990AE6EFF7E0C4
:10243000AAE9BAE002C081918D9327E0EB3FF20751
:10244000D1F72FE93AE03093210920932009913008
:1024500069F582E380939F0A84E08093A00AD90102
:102460001296E2E5F9E002C081918D9339E0E635FC
:10247000F307D1F786E38093A50A84E08093A60A48
:1024800087EA9AE09093210980932009DC01E2E633
:10249000F9E002C081918D9389E0E636F807D1F723
:1024A0008BEA9AE0909321098093200920911F09DB
:1024B000222311F094E001C093E0A0912009B09193
:1024C0002109FD0187E3819311969C93DF01119609
:1024D00081E08183FD01319683E011968C93DF01C9
:1024E000119686E08183CD01019690932109809316
:1024F0002009222339F011962C93019690932109FB
:1025000080932009E0912009F09121098FEF8193B8
:10251000F0932109E0932009CF018C5999400E9442
:10252000CB7426960FB6F894DEBF0FBECDBFCF9109
:10253000DF910895BF92CF92DF92EF92FF920F93B7
:102540001F93CF93DF938C0180910C09823009F4A3
:1025500001C1833030F4882351F1813009F076C114
:102560004BC0833021F0843009F070C1F3C00E9469
:102570005D7C20911109309112094091130950910D
:102580001409E0900D09F0900E0900910F091091C7
:1025900010092E0D3F1D401F511F261737074807F2
:1025A000590708F053C10E948A1184E018C00E94A4
:1025B000099B6093190970931A0980931B099093E2
:1025C0001C0910925209109253091092540910924A
:1025D00055090E948A1181E00E94A41781E080932E
:1025E0000C090E94099B609315097093160980934A
:1025F0001709909318092AC10634110508F4DEC0A2
:1026000080919509833409F0D9C02091A0093091B7
:10261000A1094091A2095091A309809119099091B3
:102620001A09A0911B09B0911C09281739074A07FC
:102630005B0709F0C3C0CCE8DAE0FE01A8014E5800
:10264000564FDF01119691819D012F5F3F4F808191
:10265000853329F411968C91823009F4CEC0F901AA
:10266000E90FF11DE417F50760F3A8C0FE01919191
:10267000B980EF0121969333E1F0943340F4933025
:1026800091F0963099F0913009F04FC009C09A331B
:1026900081F09F3F09F45AC0963309F046C03FC00D
:1026A00086E599E03EC08EE599E03BC086E699E07C
:1026B00038C0818190E0A0E0B0E0BA2FA92F982F18
:1026C00088272981820F911DA11DB11DBA2FA92F25
:1026D000982F88272A81820F911DA11DB11DBA2F25
:1026E000A92F982F88272B81820F911DA11DB11D25
:1026F0008093110990931209A0931309B0931409C0
:1027000081589145A140B04008F499C0C092110988
:10271000D0921209E0921309F092140990C082E657
:1027200099E0BE010E94E6808AC0E0911D09F09107
:102730001E09309709F483C080911F09981709F08A
:102740007EC0892FBE014B2D099579C00E948A1148
:1027500082E045CF0634110588F1809195098334D4
:1027600069F52091A0093091A1094091A2095091E9
:10277000A3098091190990911A09A0911B09B091A0
:102780001C09281739074A075B07C1F4ECE8FAE08F
:10279000A8014E58564FDF01119691819D012F5F80
:1027A0003F4F8081853321F411968C918530A9F1BA
:1027B000F901E90FF11DE417F50768F30E94099B81
:1027C0002091150930911609409117095091180967
:1027D000205F384D4F4F5F4F26173707480759077F
:1027E00048F034C08EE599E00E944B7383E08093FB
:1027F0000C092CC010920C0929C082E599E06CEA02
:1028000079E00E94E68080E8C82E81E5D82E81E03C
:10281000E82EF12C0E58164F29CF81E00E94931715
:102820000E945D7C60930D0970930E0980930F09DF
:102830009093100980915E098823C1F2D3CFCB0D0C
:10284000D11DC017D10708F411CF80CFDF91CF91F0
:102850001F910F91FF90EF90DF90CF90BF90089560
:10286000CF93DF9381E080936E0990915109892F76
:1028700082958F708F5B8093F9079F709F5B909319
:10288000FA0710920C090E94099BEB0104C00E94F8
:10289000F4170E949A1280910C09833061F00E9413
:1028A000099B6C1B7D0B6053754728F40E94B5177C
:1028B000882389F3ECCF0E94EB711092710910927A
:1028C000700990E080910C09833009F491E0892F20
:1028D000DF91CF910895FF920F931F93CF93DF93D2
:1028E0008C01F62E0E94099BEB010CC00E94F4178C
:1028F0000E9498750E94099B6C1B7D0B6053754765
:1029000008F0EFC00E94B517882381F30E94099B4D
:10291000EB010CC00E94F4170E9498750E94099B5D
:102920006C1B7D0B6053754708F0DBC00E94E5719E
:10293000882381F710926A0910926B0910926C0932
:1029400010926D09809122098F5F809322098091F6
:102950006609882361F488E098E0A8E0B8E08093F5
:10296000660990936709A0936809B09369098091FB
:10297000220990E0906E66E679E045E350E00E941F
:10298000E572ECE9F9E08CE0DF011D928A95E9F748
:10299000DF011C9690E0FF2019F0F801808102C051
:1029A000F80184910F5F1F4F8E3241F0882331F080
:1029B0009F5FFD01E90FF11D8083EDCFFD01919334
:1029C000DF01A90FB11D882329F7FD01119211968E
:1029D0001C92DF01119641E04183FD013196119671
:1029E0001C92418386ED22E739E0821B32968E0FDE
:1029F00080939C099091220990939D0940939E0990
:102A00004093A10990E00E94CB740E94099B8B0126
:102A100061C00E94099B601B710B6053754708F0F1
:102A200060C00E94F417EC01009709F453C00E94A3
:102A30009875892B09F04EC0C634D10508F44AC0F8
:102A400080919509853309F045C080919609803EB3
:102A500009F040C090919709809122099817D1F50B
:102A600080919D098917B1F580919F0990E08F7041
:102A70009070892BB1F580919C09E82FF0E0E45625
:102A8000F64F9E012E58364F8081807C39F0329669
:102A900009C08081882311F4319604C03196E21771
:102AA000F307B8F3CF010E962817390798F0818104
:102AB000813051F48185843039F43A968AE699E080
:102AC000BF010E94E68006C0818590E00A96E80F6B
:102AD000F91FDACF80916A09882309F49ACF81E03F
:102AE00001C080E0DF91CF911F910F91FF90089579
:102AF000482F6AE00E9402A5282F30E084E0220FD0
:102B0000331F8A95E1F7842F0E9402A5892F820F37
:102B10000895CF93DF93EC018091230990912409CC
:102B20008836910559F581E198E168E670E00E94E8
:102B3000AB9681E198E160E00E942D9788810E9428
:102B40007815682F70E06F77707081E198E10E94CE
:102B50002D9789810E947815682F81E198E10E9464
:102B60002D978A810E947815682F81E198E10E9453
:102B70002D978B810E947815682F2DC08F36910577
:102B800009F04AC081E198E16FE670E00E94AB96DF
:102B900081E198E160E00E942D9788810E9478157C
:102BA000682F606881E198E10E942D9789810E94D9
:102BB0007815682F81E198E10E942D978A810E9403
:102BC0007815682F81E198E10E942D978B810E94F2
:102BD0007815682F686081E198E10E942D978C81BB
:102BE0000E947815682F81E198E10E942D978D81D0
:102BF0000E947815682F81E198E10E942D978E81BF
:102C00008E510E947815682F81E198E10E942D97DE
:102C100081E198E10E947097DF91CF91089588E655
:102C200090E0909324098093230981E198E168E67C
:102C300070E00E94AB9681E198E160E00E942D97E0
:102C400081E198E10E9470978823D9F08FE690E0A7
:102C5000909324098093230981E198E16FE670E065
:102C60000E94AB9681E198E160E00E942D9781E19E
:102C700098E10E947097882321F010922409109205
:102C8000230908951F93CF93DF93EC0160912309EB
:102C9000709124096115710509F470C081E198E112
:102CA0000E94AB9681E198E160E00E942D9781E15E
:102CB00098E10E947097609123097091240981E145
:102CC00098E147E050E00E94819781E198E10E94FD
:102CD000BE96282F2F7722952F701AE0219F900102
:102CE00011248F70820F888381E198E10E94BE9643
:102CF000282F22952F70219F900111248F70820F11
:102D0000898381E198E10E94BE96282F2F73229536
:102D10002F70219F900111248F70820F8A8381E18F
:102D200098E10E94BE9687708B8381E198E10E94B2
:102D3000BE96282F22952F70219F900111248F700D
:102D4000820F8C8381E198E10E94BE96282F2F711B
:102D500022952F70219F900111248F70820F8D83F7
:102D600081E198E10E94BE96282F2F70225E829505
:102D70008F70819FC0011124280F2E83DF91CF9186
:102D80001F9108950F931F93DF93CF93CDB7DEB7B5
:102D900027970FB6F894DEBF0FBECDBF8E010F5F31
:102DA0001F4FA8010E940A7AC8010E948915279620
:102DB0000FB6F894DEBF0FBECDBFCF91DF911F914C
:102DC0000F9108950F931F93DF93CF93CDB7DEB785
:102DD00027970FB6F894DEBF0FBECDBF8E010F5FF1
:102DE0001F4FC8010E944216C8010E94507B2796BF
:102DF0000FB6F894DEBF0FBECDBFCF91DF911F910C
:102E00000F91089581E198E10E948597089580913E
:102E1000280961E00E94E29C78940895FF920F9344
:102E20001F93082F162FF42EF8948091280960E044
:102E30000E94E29C1F71102B1EBD0DB407FEFDCF3A
:102E4000FEBC0DB407FEFDCF0E9407171F910F9126
:102E5000FF9008951F93182F282F30E020763070B0
:102E60008091290990E02817390799F080EA6FE1ED
:102E700043E00E940E17412F40764093290950E00D
:102E800085E0559547958A95E1F780E86FE10E94C6
:102E90000E171F9108950F931F93182F062F0E944E
:102EA0002A1780E4612F402F0E940E171F910F9167
:102EB00008950F931F93182F072F0E944B17812FF0
:102EC0008F5F602F0E944B171F910F9108950F93F2
:102ED0001F93182F062FF8948091280960E00E9414
:102EE000E29C802F8F71812B8EBD0DB407FEFDCF2C
:102EF0001EBC0DB407FEFDCF07FF04C01EBC0DB401
:102F000007FEFDCF1EB50E940717812F1F910F915D
:102F100008951F93182F0E942A1780E0612F0E94A6
:102F200067171F910895882311F410922709809143
:102F30002709882341F488E30E948917682F6E7F50
:102F400088E30E944B1708951F93182F88E30E946F
:102F50008917682F616088E30E944B17112319F4C9
:102F600081E0809327091F91089584ED61E10E941B
:102F70004B1782ED61E00E944B178AEE0E94891781
:102F800080FDFBCF82ED60E00E944B1789ED0E942F
:102F9000891790E096958795969587958170089505
:102FA0000F931F93CF93DF93EC018B01F8948091E3
:102FB000280960E00E94E29C8AE38EBD0DB407FE02
:102FC000FDCF09C01EBC0DB407FEFDCF8EB5F801C4
:102FD00081938F0121972097A9F70E940717DF910E
:102FE000CF911F910F9108950F931F93DF93CF936C
:102FF00000D000D000D0CDB7DEB789E30E9489179A
:10300000882319F400E010E048C060912A0970910B
:103010002B0980E00E94591786E090E0BE016F5FA7
:103020007F4F0E94D01789819A8190932B098093BA
:103030002A092B813C81E0912509F09126098D8197
:1030400087FD03C000E010E00EC0245030408F0127
:10305000015010402017310708F48901C80162E7C8
:1030600079E00E94D017F801EE58F64F1082609177
:103070002A0970912B098CE06130780724F08CE0EC
:103080006FEF7BE003C0615070408CE00E945917E5
:1030900080E86EE140E40E940E17C80126960FB644
:1030A000F894DEBF0FBECDBFCF91DF911F910F917E
:1030B00008950F931F93CF93DF938C01EB01F89446
:1030C0008091280960E00E94E29C8AE78EBD0DB4E1
:1030D00007FEFDCF08C088818EBD0DB407FEFDCF71
:1030E00021960150104001151105A9F70E940717FC
:1030F000DF91CF911F910F910895CF93DF93EC0152
:103100008CE10E94891781FF0FC080E86FE140E8E1
:103110000E940E1780EA6FE140E80E940E1780EAD5
:103120006CE142E00E940E1782E060E07CE00E94C9
:103130005917BE016050744F86E00E9459178AE704
:1031400060E040E00E940E17CE0162E779E00E9445
:10315000591880E86FE148E00E940E17DF91CF9187
:10316000089584E061E00E94659C84E061E00E9433
:10317000E29C85E061E00E94659C87E061E00E943E
:10318000659C86E060E00E94659C85E061E00E94AD
:10319000E29C85E060E00E94E29C87E060E00E94A3
:1031A000E29C80E58CBD8DB581608DBD0895EF9268
:1031B000FF920F931F93CF93DF93EB01142F909304
:1031C0002609809325090CB406FC02C00E94B118A0
:1031D00010932809812F61E00E94659C0E940717C7
:1031E0008FEF60E04FEF0E940E1762E070E080E02A
:1031F00090E00E94179B0E94099B7B018C0180E359
:1032000095E7A0E0B0E0E80EF91E0A1F1B1F09C0F9
:103210000E94099BE616F7060807190710F480E0DC
:1032200084C080E06DE10E946717882389F31092C3
:103230002B0910922A0988E060E070E00E9459177B
:103240008CE060E070E00E9459178AE06FEF7BE04D
:103250000E94591784E060E07CE00E94591786E0E4
:103260006FEF71E10E94591780E00E94A41788E275
:103270006FE370E30E94591780E369EF77EF0E94D4
:10328000591780EC6DE00E944B1781EC60E00E94C2
:103290004B1780E862EC42E30E940E1786EC62E175
:1032A0007CE00E94591784EC62E10E944B178AEC83
:1032B0006AEE75E00E94591784EE68810E944B17F0
:1032C00085EE69810E944B1782EE6A810E944B173E
:1032D00083EE6B810E944B1780EE6C810E944B172E
:1032E00081EE6D810E944B1784ED60E10E944B17C7
:1032F00086ED60E071E00E9459178AEE0E948917FE
:1033000080FDFBCF8FE10E942A1780E86BE140EC43
:103310000E940E1780E86FE144E00E940E1782E7DA
:103320000E948917863008F08F5FDF91CF911F913F
:103330000F91FF90EF900895EF92FF920F931F93DC
:10334000CF93DF93FC01EB018A01790110926E09A2
:10335000009729F082E599E0BF010E94E68020975E
:1033600019F0CE010E944B730115110529F086E674
:1033700099E0B8010E94E680E114F10429F086E5A5
:1033800099E0B7010E94E6800E94EB7110927109EA
:103390001092700981E0DF91CF911F910F91FF9002
:1033A000EF900895AF92BF92CF92DF92FF920F936A
:1033B0001F93CF93DF938C01EB01F42E10926E09D3
:1033C00038E341E050E060E070E018C0832F90E007
:1033D000FC01B3E0F595E795BA95E1F7E45DF64FAA
:1033E000877090705A016B0104C0AA0CBB1CCC1CE6
:1033F000DD1C8A95D2F720812A292083315031F7AC
:103400008CE499E0BE010E94DE80C8016CE479E0A2
:103410004F2D0E94D718DF91CF911F910F91FF90F0
:10342000DF90CF90BF90AF900895CF92DF92EF9250
:10343000FF920F931F93DF93CF93CDB7DEB7EB844B
:10344000FC84CD84DE84DE011F9601C0D801F60124
:103450008491882309F4BCC00894C11CD11C843217
:1034600009F099C0F6010894C11CD11C84918634DE
:1034700009F45FC0873434F4843469F0853409F08A
:103480008AC06EC08C34C9F1833509F445C08834D4
:1034900009F081C00DC08D010E5F1F4FF7016681DD
:1034A00077818D919C914AE050E00E94360C7EC05D
:1034B0002C91822F992787FD909514E095958795FB
:1034C0001A95E1F78F702F702A300CF0295F8A303F
:1034D0000CF0895F8D010E5F1F4FF701A681B78148
:1034E000805DFD018193205D11962C933196D7016B
:1034F0001796FC93EE931697A9CF8D010C5F1F4F83
:103500006D917D918D919C91F701468157812AE0C3
:1035100030E00E94740C4AC08D010E5F1F4F6D9108
:103520007C91D70116968D919C9117970E94A80BBC
:103530003DC08D010E5F1F4F2D913C910AC0D701F8
:103540001696ED91FC91179781931796FC93EE9345
:103550001697F9012F5F3F4F8491882381F776CF2B
:103560008D010E5F1F4F2D913C910AC0D701169619
:10357000ED91FC91179781931796FC93EE93169714
:10358000F999FECF32BD21BDF89A80B52F5F3F4F2C
:10359000882361F75BCFF70126813781F901819399
:1035A0009F01F701378326838D0150CFD7011696EF
:1035B0008D919C911797FC0101900020E9F73197BC
:1035C000E81BF90B8E0F9F1FF701978386833ECF71
:1035D000CF91DF911F910F91FF90EF90DF90CF90EF
:1035E00008950F931F938C01FC01848560E00E9475
:1035F000E29C81E090E00E94709BF801848561E08C
:103600000E94E29C81E090E00E94709BF80184851A
:1036100060E00E94E29C84E690E00E94709B1F9113
:103620000F910895CF92DF92EF92FF920F931F9325
:103630006C01062F81E1E82E88E1F82EC701F60122
:1036400064810E94A19610E0F601808590E0082B2D
:10365000192BC701602F0E942D97C7010E947097F8
:103660001F910F91FF90EF90DF90CF900895FF9200
:103670000F931F938C01F62E64600E94121B81E051
:1036800090E00E94709B8BEFF822C8016F2D0E9482
:10369000121B82E390E00E94709B1F910F91FF909C
:1036A0000895FC0188E08087CF0160E00E94121B32
:1036B0000895FC01108660E00E94121B0895CF92CD
:1036C000DF92EF92FF920F931F93CF93DF937C01D2
:1036D000D62EFC018185813039F4C7010E94121B6E
:1036E000C7016D2D0E94371BF70181858823F9F4EE
:1036F0008701C0E0D0E0CD2CDD24F801858561E0B4
:103700000E94659CB6010C2E02C0759567950A94BF
:10371000E2F76170F80185850E94E29C21960F5FB7
:103720001F4FC430D10549F7C7010E94F11ADF913C
:10373000CF911F910F91FF90EF90DF90CF90089560
:103740000F931F93CF93DF93EC01062F142F8985DE
:10375000813061F4607F642BCE010E945F1B602F7B
:103760006295607F612BCE010E945F1B8985882353
:10377000C1F48A85612F0E94E29C8B858F3F19F0EE
:1037800060E00E94E29C602F70E094E07595679580
:103790009A95E1F7CE010E945F1BCE01602F0E9437
:1037A0005F1BDF91CF911F910F91089541E00E941F
:1037B000A01B81E090E0089540E00E94A01B0895C6
:1037C000EF92FF920F931F93CF93DF938C017A01B7
:1037D0006770660F660F660F60640E94DC1BC0E0B6
:1037E000D0E0D801ED91FC91D701AC0FBD1F019045
:1037F000F081E02DC8016C9109952196C830D10562
:1038000081F7DF91CF911F910F91FF90EF90089575
:10381000FC0166896E7F668B68600E94DC1B0895E0
:10382000FC016689862F8460868B6C60CF010E94C4
:10383000DC1B0895DF93CF93CDB7DEB728970FB683
:10384000F894DEBF0FBECDBF9C01FE013196A3EA06
:10385000B8E088E00D9001928150E1F7F90181858F
:10386000813021F48681841748F406C0882331F41E
:10387000F901818D481710F0482F4150E42FF0E0F6
:10388000EE0FFF1FEC0FFD1F8181680F6068C901FB
:103890000E94DC1B28960FB6F894DEBF0FBECDBF8A
:1038A000CF91DF91089562E00E94DC1B80ED97E0EC
:1038B0000E94709B089561E00E94DC1B80ED97E000
:1038C0000E94709B0895CF93DF93EC01898581302E
:1038D00009F044C088E08D8B62E370E080E090E006
:1038E0000E94179BCE0168850E94121B68EE73E050
:1038F00080E090E00E94179BCE0160E30E945F1B76
:1039000084E991E10E94709BCE0160E30E945F1BFD
:1039100084E991E10E94709BCE0160E30E945F1BED
:1039200086E990E00E94709BCE0160E20E945F1BDE
:103930006D896062CE010E94DC1B84E08E8BCE011B
:103940000E94101CCE010E945B1C82E08F8BCE0176
:1039500066E00E94DC1BCE010E94531C89858823EF
:1039600009F061C08D8988608D8B82E0898F1A8E05
:1039700080E593EC0E94709B8A8560E00E94E29C47
:103980008C8560E00E94E29C8B858F3F19F060E09F
:103990000E94E29C6D8964FD1DC0CE0163E00E941F
:1039A0005F1B84E991E10E94709BCE0163E00E945D
:1039B0005F1B84E991E10E94709BCE0163E00E944D
:1039C0005F1B86E990E00E94709BCE0162E00E943E
:1039D0005F1B16C06062CE010E94DC1B84E991E18E
:1039E0000E94709B6D896062CE010E94DC1B86E99B
:1039F00090E00E94709B6D896062CE010E94DC1B8A
:103A00006D896062CE010E94DC1B84E08E8BCE014A
:103A10000E94101CCE010E945B1C82E08F8BCE01A5
:103A200066E00E94DC1BDF91CF9108956F927F9238
:103A30008F92AF92CF92EF920F93DF93CF93CDB748
:103A4000DEB73C01FC01428723870487E586C686F2
:103A5000A786808A8C85818B8D85828B8E85838BD2
:103A60008F85848B81E198E10E948597F30111860F
:103A700081E198E167E270E00E94AB9681E198E114
:103A800060E00E942D9781E198E10E947097882361
:103A900019F481E0F3018187F3018185813049F4D4
:103AA00087E2848380E1858382E08683178288E0D1
:103AB0008087F3018185882381F4828561E00E94FB
:103AC000659CF30183858F3F19F061E00E94659C3E
:103AD000F301848561E00E94659C88E0F301858B99
:103AE000CF91DF910F91EF90CF90AF908F907F901B
:103AF0006F900895FC01A681B7816D93B783A6836B
:103B000081E090E008951F920F920FB60F920BB6CE
:103B10000F9211242F933F934F935F936F937F9353
:103B20008F939F93AF93BF93EF93FF938091400F39
:103B30008F5F8093400F8091400F803128F0E0919B
:103B40003E0FF0913F0F0995FF91EF91BF91AF911B
:103B50009F918F917F916F915F914F913F912F91A5
:103B60000F900BBE0F900FBE0F901F901895809175
:103B7000211390E023E0880F991F2A95E1F78E5DCD
:103B80009C4EE2E2F3E103C0158214823896E817F6
:103B9000F907D0F3089589E18093EB0E1092EE0EB1
:103BA0001092010F1092080F10920A0F1092250F19
:103BB0001092240F8FEA98E09093230F8093220FA6
:103BC0000895AF92BF92CF92DF92EF92FF920F9340
:103BD0001F9380910F08882309F445C02091D710C6
:103BE000922F991F9927991F8091D8108370880F61
:103BF000892BC9F58091D61085FD35C022FF33C0D1
:103C00000E945D7C5B016C018091D7108B7F80935B
:103C1000D7108091410F882329F48CE890E061E06F
:103C20000E946E3A0E94145B7B018C016115710544
:103C300081059105C1F00E94307CC801B7010E9446
:103C4000C21621E8A21628ECB2062FE4C2062AE327
:103C5000D20648F40E945D7C6158784C8F449A43A8
:103C600010F00E94AB371F910F91FF90EF90DF9003
:103C7000CF90BF90AF900895EF92FF920F931F9354
:103C80008091D61085FDB4C08091D71083FFB0C05D
:103C9000877F8093D7108091410F882359F486E065
:103CA00092E16FE041E00E941A1C86E092E164E03C
:103CB0000E94D61B0E94099B7B018C018091D81029
:103CC00082FF09C00E94D847882329F08091D8102C
:103CD0008B7F8093D8108EE599E00E944B750E94EF
:103CE000F4170E9498758EE599E00E940D7888235C
:103CF00061F40E94099B6E197F09800B910B683C4F
:103D000071058105910558F34CC08091D7108F77CC
:103D10008093D7108091D8108C7F8093D81006C0E4
:103D20002F772093D7103B603093D8109091D71005
:103D3000991F9927991F2091D810822F8370880F7F
:103D4000892B09F055C0277F2093D8100E94099B2A
:103D50007B018C018BE990E060E00E946B1488236A
:103D6000A1F080E091E06AE679E00E94C7808AE6EF
:103D700099E00E944B750E94F4170E9498758AE69C
:103D800099E00E940D78882399F50E94099B6E198D
:103D90007F09800B910B683C710581059105D0F27C
:103DA00022C02091D710922F991F9927991F3091E7
:103DB000D810832F8370880F892B8F5F8770982F7F
:103DC0009795992797952F77292B2093D710982F80
:103DD00096953C7F392B932F98609093D81087301D
:103DE00009F49ECFA3CF8091D81088608093D8101B
:103DF0001F910F91FF90EF900895EF92FF920F9314
:103E00001F938C018AEE9EE066E071E040E00E9424
:103E100089913BEFE32E31E1F32EC701B8010E94F7
:103E2000A80B06E011E1C80165E078E00E94A80B4C
:103E3000C801B7010E94920BC8016AEA70E00E94B3
:103E40005E0B1F910F91FF90EF900895CF93DF933A
:103E5000EC0180913108882361F18091D61087FFB1
:103E600028C0CE0168E071E043E050E00E94AF0B53
:103E7000009771F48AEE9EE065E078E040E00E94F1
:103E800089918823B1F088E09FE00E94368A11C0B2
:103E9000CE010E94FD1E8AEE9EE066E071E10E9466
:103EA0006A91882331F08AEE9EE066E071E10E941B
:103EB0004791DF91CF9108953F924F925F926F9219
:103EC0007F928F929F92AF92BF92CF92DF92EF92AA
:103ED000FF920F931F93DF93CF93CDB7DEB7AA97CF
:103EE0000FB6F894DEBF0FBECDBF382E5A016B015E
:103EF0002801390180913108882309F474C6CB0167
:103F0000BA0120E831E541E050E00E9435A5CA0140
:103F1000B90146E051E12AE030E00E94740C86E0ED
:103F200091E10E94FD1E8091D61087FF5CC68AEE4B
:103F30009EE066E071E040E00E9489918AEE9EE09A
:103F400065E078E040E00E948991882391F48AEE50
:103F50009EE065E078E041E00E944B91882309F4FF
:103F600042C61092360F1092370F1092380F1092EF
:103F7000390F198A1B8A188A1F8686EE98E09E8759
:103F80008D878E010F5E1F4FA6E08A2EA1E19A2E2B
:103F9000C801B40142E40E94B88FF82E4BA15CA185
:103FA0006DA17EA1C8010E945485FF2009F41BC6A3
:103FB000332009F047C02DB73EB7265130400FB629
:103FC000F8943EBF0FBE2DBFEDB7FEB73196ADB72B
:103FD000BEB712969C928E9211978CE091E09383DB
:103FE00082838091D314848315828091D214868336
:103FF00017828091D4149091D51491878087A286DE
:10400000B386C486D58680911D1590911E15A0910A
:104010001F15B091201586879787A08BB18B809153
:10402000191590911A15A0911B15B0911C15828B32
:10403000938BA48BB58B0E94990C2DB73EB72A5E4B
:104040003F4F59C334E0331609F03FC04DB75EB758
:10405000405150400FB6F8945EBF0FBE4DBFEDB754
:10406000FEB73196ADB7BEB712969C928E9211975D
:1040700084E291E0938382838091211590912215AF
:10408000A0912315B091241584839583A683B783CB
:104090008091351590913615A0913715B09138154E
:1040A000A6019501281B390B4A0B5B0B2087318732
:1040B00042875387A486B586C686D7860E94990C08
:1040C0004DB75EB7405F5F4F68C352E0351671F57C
:1040D0008091F8109091F910A091FA10B091FB1016
:1040E0008A159B05AC05BD0528F020E030E040E0D6
:1040F00050E006C0A6019501281B390B4A0B5B0B4B
:104100008DB79EB70C970FB6F8949EBF0FBE8DBFAC
:10411000EDB7FEB7319686E091E1ADB7BEB7129626
:104120009C938E93119788E391E030C031E0331671
:10413000C1F58091F4109091F510A091F610B09116
:10414000F7108A159B05AC05BD0528F020E030E08E
:1041500040E050E006C0A6019501281B390B4A0B30
:104160005B0B8DB79EB70C970FB6F8949EBF0FBE32
:104170008DBFEDB7FEB7319686E091E1ADB7BEB722
:1041800012969C938E9311978AE491E09383828395
:104190002483358346835783A086B186C286D3861F
:1041A00003C133E0331629F54DB75EB74A5050408E
:1041B0000FB6F8945EBF0FBE4DBFEDB7FEB7319698
:1041C000ADB7BEB712969C928E9211978CE591E096
:1041D000938382838091240884831582A682B78288
:1041E000C086D1860E94990C2DB73EB7265F3F4FFF
:1041F00082C237E0331609F05BC04DB75EB74A5153
:1042000050400FB6F8945EBF0FBE4DBFEDB7FEB77E
:104210003196ADB7BEB712969C928E9211978DE6ED
:1042200091E09383828387E090E095838483A682E4
:10423000B782C086D1868091211590912215A091D8
:104240002315B091241582879387A487B587809121
:10425000351590913615A0913715B0913815A601F6
:104260009501281B390B4A0B5B0B26873787408B40
:10427000518B8091251590912615A0912715B0910D
:104280002815828B938BA48BB58B809129159091E7
:104290002A15A0912B15B0912C15868B978BA08F8A
:1042A000B18F0E94990C4DB75EB7465E5F4F75C2E5
:1042B00058E0351651F58DB79EB70E970FB6F894A6
:1042C0009EBF0FBE8DBFEDB7FEB73196ADB7BEB77F
:1042D00012969C928E9211978EE891E0938382833E
:1042E00088E090E095838483A682B782C086D186D9
:1042F0008091291590912A15A0912B15B0912C151C
:1043000082879387A487B5876CC135E0331619F58A
:104310004DB75EB74C5050400FB6F8945EBF0FBE1D
:104320004DBFEDB7FEB73196ADB7BEB712969C92B2
:104330008E92119783EA91E09383828385E090E0E7
:1043400095838483A682B782C086D1868091D61059
:104350008695869526C036E0331669F54DB75EB76B
:104360004C5050400FB6F8945EBF0FBE4DBFEDB736
:10437000FEB7319686E091E1ADB7BEB712969C9339
:104380008E93119787EB91E09383828386E090E090
:1043900095838483A682B782C086D1868091D61009
:1043A00086958170828713860E94990C2DB73EB73F
:1043B000245F3F4FA0C130E3331631F54DB75EB7F0
:1043C0004C5050400FB6F8945EBF0FBE4DBFEDB7D6
:1043D000FEB7319686E091E1ADB7BEB712969C93D9
:1043E0008E9311978BEC91E09383828380E390E02E
:1043F00095838483A682B782C086D1868091D610A9
:10440000869586958695CDCF31E3331629F54DB740
:104410005EB74C5050400FB6F8945EBF0FBE4DBF14
:10442000EDB7FEB7319686E091E1ADB7BEB7129613
:104430009C938E9311978FED91E09383828381E318
:1044400090E095838483A682B782C086D1868091CE
:10445000D61082958F70A5CF32E33316D9F44DB7BD
:104460005EB7405150400FB6F8945EBF0FBE4DBFCF
:10447000EDB7FEB7319686E091E1ADB7BEB71296C3
:104480009C938E93119783EF91E09383828382E3D1
:1044900090E03BC033E33316D9F44DB75EB74051DB
:1044A00050400FB6F8945EBF0FBE4DBFEDB7FEB7DC
:1044B000319686E091E1ADB7BEB712969C938E938C
:1044C00011978DE092E09383828383E390E04AC06A
:1044D00034E3331651F54DB75EB7405150400FB637
:1044E000F8945EBF0FBE4DBFEDB7FEB7319686E0C4
:1044F00091E1ADB7BEB712969C938E93119787E268
:1045000092E09383828384E390E095838483A68200
:10451000B782C086D186428653866486758680912E
:10452000D6108695869586952BC035E3331691F582
:104530004DB75EB7405150400FB6F8945EBF0FBE06
:104540004DBFEDB7FEB7319686E091E1ADB7BEB78E
:1045500012969C938E93119780E492E093838283CA
:1045600085E390E095838483A682B782C086D18656
:1045700042865386648675868091D61082958F70A8
:104580008170868717860E94990C2DB73EB7205FF1
:104590003F4FB1C036E3331659F54DB75EB74E50B5
:1045A00050400FB6F8945EBF0FBE4DBFEDB7FEB7DB
:1045B000319686E091E1ADB7BEB712969C938E938B
:1045C00011978AE592E09383828386E390E0958356
:1045D0008483A682B782C086D1864286538664864B
:1045E00075860E94990C2DB73EB7225F3F4F83C05E
:1045F00037E3331691F54DB75EB7425150400FB6D1
:10460000F8945EBF0FBE4DBFEDB7FEB7319686E0A2
:1046100091E1ADB7BEB712969C938E93119782E746
:1046200092E09383828387E390E095838483A682DC
:10463000B782C086D186428653866486758680910D
:10464000D610869586958170868717868091D610BC
:1046500086958170808B118A48C039E0331609F045
:1046600050C06091111570911215809113159091A1
:104670001415F3E0EF2EF12CEC0EFD1E44E022E0C9
:1046800087010E94EF0A4DB75EB7425150400FB606
:10469000F8945EBF0FBE4DBFEDB7FEB7319686E012
:1046A00091E1ADB7BEB712969C938E9311978FE8A8
:1046B00092E09383828389E090E095838483A6824D
:1046C000B782C086D1868091E61482871386809156
:1046D000191590911A15A0911B15B0911C1584877E
:1046E0009587A687B787F18AE08A0E94990C2DB733
:1046F0003EB72E5E3F4F0FB6F8943EBF0FBE2DBFA4
:1047000051C030E1331609F04DC04DB75EB744518A
:1047100050400FB6F8945EBF0FBE4DBFEDB7FEB769
:10472000319686E091E1ADB7BEB712969C938E9319
:1047300011978BEA92E09383828380E190E09583E6
:104740008483A682B782C086D1868091E614828750
:1047500013868091211590912215A0912315B09177
:10476000241584879587A687B78780913515909102
:104770003615A0913715B0913815A6019501281B63
:10478000390B4A0B5B0B208B318B428B538B0E9476
:10479000990C4DB75EB74C5E5F4F0FB6F8945EBF95
:1047A0000FBE4DBF832D8551823008F04BC0609104
:1047B0001115709112158091131590911415E3E065
:1047C000EE2EF12CEC0EFD1E44E022E087010E944B
:1047D000EF0A8DB79EB740970FB6F8949EBF0FBEF5
:1047E0008DBFEDB7FEB7319686E091E1ADB7BEB7AC
:1047F00012969C938E93119789EC92E09383828317
:1048000034821582A682B782C086D1868091E61452
:10481000828713868091FE149091FF1473E0969521
:1048200087957A95E1F795878487F786E6860E94D3
:10483000990C2DB73EB7205F3F4F0FB6F8943EBF9F
:104840000FBE2DBF832D8851823008F042C04DB776
:104850005EB7425150400FB6F8945EBF0FBE4DBFD9
:10486000EDB7FEB7319686E091E1ADB7BEB71296CF
:104870009C938E93119784EE92E09383828334828B
:104880001582A682B782C086D1868091E61482877F
:1048900013868091FD1490E0880F991F880F991F4F
:1048A000958784878091191590911A15A0911B15F1
:1048B000B0911C1586879787A08BB18B0E94990CAD
:1048C0002DB73EB72E5E3F4F0FB6F8943EBF0FBEDA
:1048D0002DBF832D8151823020F03AE0331609F04C
:1048E00047C04DB75EB7425150400FB6F8945EBF17
:1048F0000FBE4DBFEDB7FEB7319686E091E1ADB783
:10490000BEB712969C938E93119780E093E09383A9
:10491000828334821582A682B782C086D186809136
:10492000211590912215A0912315B091241582870D
:104930009387A487B5878091351590913615A091FE
:104940003715B0913815A6019501281B390B4A0B74
:104950005B0B26873787408B518B0E94990C4DB794
:104960005EB74E5E5F4F0FB6F8945EBF0FBE4DBF91
:1049700053E1351631F58DB79EB70A970FB6F89407
:104980009EBF0FBE8DBFEDB7FEB7319686E091E1B9
:10499000ADB7BEB712969C938E9311978BE193E0BF
:1049A0009383828383E190E095838483A682B78298
:1049B000C086D1860E94990C2DB73EB7265F3F4F27
:1049C000D7C034E13316E9F54DB75EB742515040D8
:1049D0000FB6F8945EBF0FBE4DBFEDB7FEB7319670
:1049E00086E091E1ADB7BEB712969C938E93119776
:1049F0008EE293E09383828384E190E095838483C5
:104A0000A682B782C086D186809121159091221509
:104A1000A0912315B091241582879387A487B58729
:104A20008091351590913615A0913715B0913815B4
:104A3000A81AB90ACA0ADB0AA686B786C08AD18A2A
:104A400091C037E1331609F04AC060911115709199
:104A50001215809113159091141553E0E52EF12C49
:104A6000EC0EFD1E44E022E087010E94EF0A4DB7E4
:104A70005EB7405150400FB6F8945EBF0FBE4DBFB9
:104A8000EDB7FEB7319686E091E1ADB7BEB71296AD
:104A90009C938E93119789E493E09383828387E1BB
:104AA00090E095838483A682B782C086D186809168
:104AB000E614828713868091FE149091FF1443E0E0
:104AC000969587954A95E1F795878487F786E686D8
:104AD0000E94990C2DB73EB7205F3F4F49C030E28E
:104AE000331609F04AC0609111157091121580912A
:104AF00013159091141544E022E08E010D5F1F4FB5
:104B00000E94EF0A4DB75EB7425150400FB6F8947D
:104B10005EBF0FBE4DBFEDB7FEB7319686E091E1A7
:104B2000ADB7BEB712969C938E93119786E693E02D
:104B30009383828380E290E095838483A682B78208
:104B4000C086D1868091E614828713868091E11415
:104B5000848715868091DF14868717868091DE14FE
:104B6000808B118A0E94990C2DB73EB72E5E3F4F65
:104B70000FB6F8943EBF0FBE2DBF8AEA99E166E0FA
:104B800071E10E94B5A28091E8199091E91900970E
:104B900011F48CEE99E1BE016F5F7F4F681B790BBA
:104BA0008AEA99E14AE050E00E94E2A1CE010D9626
:104BB00066E071E10E9400928091360F9091370F6C
:104BC000A091380FB091390F0196A11DB11D8093AE
:104BD000360F9093370FA093380FB093390FCE0153
:104BE00041960E94BC87AA960FB6F894DEBF0FBE0E
:104BF000CDBFCF91DF911F910F91FF90EF90DF908C
:104C0000CF90BF90AF909F908F907F906F905F906C
:104C10004F903F900895EF92FF920F931F93CF9381
:104C2000DF938C017B01C0E0D0E0D8010D90002023
:104C3000E9F71197A01BB10BF701EC0FFD1FA00FB7
:104C4000B11F808190E0BD014AE050E00E94360C27
:104C5000C33029F0C80166E873E00E94920B2196E8
:104C6000C430D10511F7DF91CF911F910F91FF90C3
:104C7000EF9008952F923F924F925F927F928F9282
:104C80009F92AF92BF92CF92DF92EF92FF920F93DB
:104C90001F93DF93CF93CDB7DEB7C658D0400FB682
:104CA000F894DEBF0FBECDBF782E5A016B011801FC
:104CB00029019091D710991F9927991F8091D81099
:104CC0008370880F892B09F042C2272D30E0809134
:104CD0003E0890E028233923232B09F438C2109290
:104CE000411081EA92E061E470E14FEF50E020E092
:104CF00030E00E94E67D1092C01080914110882320
:104D000009F425C22091020830910308CB57DF4FE8
:104D100039832883C558D04080E590E090930308FC
:104D20008093020832E4832E3FE0932EC40168EFA3
:104D300071E00E94690B34E0731609F4EFC0371577
:104D400048F081E0781609F480C092E0791609F005
:104D5000B6C1C5C0E0E17E1609F48EC1F0E27F164F
:104D600029F028E0721609F0AAC13AC1C4016FEE19
:104D700071E00E945E0BF40101900020E9F7319789
:104D8000E254FF40EE5BF04F8A2DBF010E947F3F4F
:104D9000C4016AED71E00E945E0BC201B1010E9484
:104DA00099A37B018C01F40101900020E9F7319770
:104DB000E254FF40CB016CE370E00E9422A5CB01DE
:104DC000EE5BF04FBF014AE050E00E94360CC40198
:104DD00060ED71E00E945E0BF40101900020E9F7A4
:104DE0003197E254FF40C7016CE370E00E9422A5B6
:104DF000EE5BF04FBF014AE050E00E94360CC40168
:104E000066EC71E00E945E0B80913F08813009F0F2
:104E100056C1C40169EB71E00E945E0BF401019080
:104E20000020E9F73197E254FF406091111570912D
:104E300012158091131590911415EE5BF04F45E01B
:104E400022E08F010E94EF0A3AC1EF2821F0C4014D
:104E500065EA71E003C0C4016CE871E00E945E0B7A
:104E600082E49FE063E871E00E945E0B8A2DBE0140
:104E70006B5F7F4F0E949C4A8091201390E0A0E0DE
:104E8000B0E0A816B906CA06DB0638F482E49FE053
:104E9000BE016F587F4F0E94920B02E41FE0C801D1
:104EA0006CE771E00E945E0BF80101900020E9F7C9
:104EB0007F010894E108F108E01AF10AC201B1018A
:104EC0000E9499A3DC01CB01E00EF11EB7014AE07C
:104ED00050E00E94360CC8016DE671E01CC0F2E0A3
:104EE000AF16B104C104D10419F064E571E002C049
:104EF00061E671E082E49FE00E945E0BC201B101B5
:104F00000E9499A3672B19F46CE371E002C069E475
:104F100071E082E49FE00E945E0BD1C0C4016FE2A9
:104F200071E00E945E0BF40101900020E9F73197D7
:104F3000E254FF40EE5BF04FC501BF014AE050E094
:104F40000E94360CC40164E271E00E945E0B609125
:104F5000370870E080E090E0982F872F762F662743
:104F600020913608620F711D811D911DA6019501CA
:104F70000E94E3A46B017C01F40101900020E9F799
:104F80008F010150104002541F4024E630E040E001
:104F900050E00E9435A5DA01C9010E5B104FB8013F
:104FA0004AE050E00E94360CC40166E873E00E94BB
:104FB000920BF40101900020E9F78F01015010409D
:104FC00002541F40C701B60124E630E040E050E043
:104FD0000E9435A5DC01CB010E5B104FB8016BC000
:104FE000A114B104C104D104D1F0C4016EE071E098
:104FF0000E945E0B8D2D9927AA27BB278983C601A6
:10500000AA27BB278A83BB27AD2D9C2D8B2D8B8395
:10501000AC82C401BE016F5F7F4F0E940B26C201AC
:10502000B10120E030E040E050E00E947CA4882301
:105030000CF445C002E41FE0C80168EF70E00E9474
:105040005E0BF80101900020E9F77F010894E10868
:10505000F108E01AF10AC201B1010E9499A3DC0132
:10506000CB01E00EF11EB7014AE050E00E94360C81
:10507000C80165EF70E04FCFC4016FED70E00E9492
:105080005E0BC40162E579E00E940B26C40168E86A
:1050900073E00E94920BF40101900020E9F7319730
:1050A000E254FF40EE5BF04FCB57DF4F8881998190
:1050B000C558D040BF014AE050E00E94360C82E45F
:1050C0009FE06CED70E00E945E0B8AEA99E16AE86D
:1050D00073E00E9401A28AEA99E162E47FE00E9403
:1050E000B5A28091B3089091B40861E00E946B145E
:1050F000882361F486E380936A098CEA80936B09C4
:1051000084EF80936C0984E780936D098FEB90E0C6
:105110006FEA70E041E450E122E43FE00CE712E482
:105120000E94807200E010E00E94F4170E949875BF
:105130000F5F1F4F04361105B9F7CB57DF4F28819A
:105140003981C558D0403093030820930208CA57CC
:10515000DF4F0FB6F894DEBF0FBECDBFCF91DF910A
:105160001F910F91FF90EF90DF90CF90BF90AF9085
:105170009F908F907F905F904F903F902F900895D9
:105180000E940F440E9486440E94E54B08952F928E
:105190003F924F925F926F927F928F929F92AF92C7
:1051A000BF92CF92DF92EF92FF920F931F93DF9304
:1051B000CF9300D000D0CDB7DEB72B013C014B011F
:1051C0005C010894811C911CA11CB11C80911E08DB
:1051D0000E94A67D2091DA143091DB144091DC14FA
:1051E0005091DD14421653066406750618F07501D9
:1051F000640109C06C01EE24D7FCE094FE2CC20EC1
:10520000D31EE41EF51E0091380852E2252E53E10C
:10521000352E9C01442737FD4095542F29833A832E
:105220004B835C834FC0F10180819181A281B38166
:105230000097A105B10509F041C084819581892BB2
:10524000E9F11681812F86958695869590E08C559B
:10525000924F0E943C3890E0177002C09595879558
:105260001A95E2F780FF3DC00023D9F5F101C08215
:10527000D182E282F38284819581A0E0B0E029812D
:105280003A814B815C81820F931FA41FB51FC80E0A
:10529000D91EEA1EFB1E8091D61085FD0FC08062CC
:1052A0008093D61080913F08813041F44092F410F1
:1052B0005092F5106092F6107092F71048E050E0AE
:1052C000240E351E8091211390E043E0880F991F32
:1052D0004A95E1F78E5D9C4E2816390608F4A3CF57
:1052E0000BC0F10180829182A282B3820894811C5A
:1052F000911CA11CB11CCFCF0F900F900F900F905D
:10530000CF91DF911F910F91FF90EF90DF90CF90A1
:10531000BF90AF909F908F907F906F905F904F90D5
:105320003F902F9008955F926F927F928F929F92FD
:10533000AF92BF92CF92DF92EF92FF920F931F93A3
:10534000DF93CF93CDB7DEB7C058D0400FB6F894F7
:10535000DEBF0FBECDBFA82E862E0E94C0288A2D8C
:1053600081508E3F30F5BE016F5F7F4F0E949C4A97
:10537000882029F400E010E028EC32E40BC06091B2
:10538000240870E0882777FD8095982F0E94CCA391
:105390008B019C014A2D50E041505040662757FD3B
:1053A0006095762F81E0BFE9EB2EB3E0FB2E0E94E3
:1053B0003A269924BB24AEEF5A2E3E010894611C74
:1053C000711C7BC0CB2CDD24A6014F5F5F4F209169
:1053D000D81022952F703091D910832F8295807F1D
:1053E000822B90E08417950709F466C032953F70D0
:1053F0008091DA108295807F832B90E08417950747
:1054000009F45AC08FEFA81631F4F2E0EF2EF12C18
:10541000012D112D14C0AA2031F4ECE3EE2EF12C55
:10542000012D112D0CC0F6013696EE0FFF1FE60D73
:10543000F71D808191810E94647D7B018C01882011
:1054400099F02091240830E040E050E0C801B70115
:105450000E94E3A424E630E040E050E00E9435A53D
:10546000C901DA017C018D01E114F1040105110586
:1054700019F163E0D694C7946A95E1F7C6018256A4
:10548000924F0E943C3890E02B2D277002C09595DA
:1054900087952A95E2F780FD0FC00E947348FC01B2
:1054A000009751F01082118212821382F582E482F9
:1054B000B682578299249394B3948091E210B816DF
:1054C00008F480CF992021F00E9420450E94C7282F
:1054D000C058DF4F0FB6F894DEBF0FBECDBFCF91DF
:1054E000DF911F910F91FF90EF90DF90CF90BF90D1
:1054F000AF909F908F907F906F905F900895BF9234
:10550000CF92DF92EF92FF920F931F93CF93DF938F
:10551000C82E7A018B0160E00E94D343CC2DD0E0ED
:10552000FE01EE55FB4EB08080912113B81608F0B5
:1055300066C0EB2DF0E083E0EE0FFF1F8A95E1F7E8
:10554000EE5DFC4E40815181628173814E155F0595
:105550006007710708F04CC0DE0111962091D81049
:1055600022952F703091D910832F8295807F822BC6
:1055700090E08A179B07E1F132953F708091DA1035
:105580008295807F832B90E08A179B0789F1C092D8
:10559000D21487818093D314C701841B950B9093F9
:1055A000D5148093D414E092D614F092D7140093BB
:1055B000D8141093D91480E0B801A70100E010E0DE
:1055C00020E030E00E945C1FDD24EE24FF24609187
:1055D000D4147091D51480E090E00E94CAA38B018E
:1055E0009C0180E2B701A601EE24FF240E943A2626
:1055F0008B2D0E94594BCE55DB4E8FEF8883DF9168
:10560000CF911F910F91FF90EF90DF90CF90BF90BF
:1056100008952F923F924F925F926F927F928F9256
:105620009F92AF92BF92CF92DF92EF92FF920F9331
:105630001F93DF93CF93CDB7DEB72A970FB6F894B9
:10564000DEBF0FBECDBF4B015C018091D610282F6D
:1056500021702C8381FD09C082FD02C0772407C020
:10566000772480912208823011F4772473948091FA
:10567000D61083FD0AC08091DB1083FD06C08091A7
:105680004508811181E08A8301C01A828091D61079
:1056900084FD0AC08091DB1084FD06C0809147081C
:1056A000811181E0898301C0198280914E0888238D
:1056B00011F4662405C080913F08811181E0682EB5
:1056C000CC24F7C00C2D10E0C8018E56924F0E94DA
:1056D0003C38D82EC8018055924F0E943C38E82EA5
:1056E000C8018A54924F0E943C38F82EC8018E534C
:1056F000924F0E943C383C2D330F330F330F3B83C6
:105700001A861986ED2DF0E0FE83ED832F2D30E013
:1057100038872F832E2C3324482E5524FB8039853F
:10572000F30EEF2DF0E0AF014F5F5F4F2091D810E7
:1057300022952F703091D910832F8295807F822BF4
:1057400090E08417950709F4ABC032953F708091C3
:10575000DA108295807F832B90E08417950709F4F7
:105760009FC0EE55FB4EE081EF3F09F499C0F0E099
:1057700093E0EE0FFF1F9A95E1F7EE5DFC4E8781F7
:10578000833608F08DC08C81882389F1662049F02A
:10579000C201098402C0959587950A94E2F780FDBD
:1057A00026C09A81992349F0C101098402C09595C8
:1057B00087950A94E2F780FD1AC0E981EE2351F043
:1057C0008F819885098402C0959587950A94E2F7A0
:1057D00080FD0DC0772009F463C08D819E8109840E
:1057E00002C0959587950A94E2F780FD59C08F2DE8
:1057F000B501A4010E947F2A662091F0C2010984AC
:1058000002C0959587950A94E2F780FF09C00F2D95
:1058100010E020E030E086E3B501A4010E945C1FA7
:10582000FA81FF2391F0C101098402C09595879503
:105830000A94E2F780FF09C00F2D10E020E030E06D
:1058400084E3B501A4010E945C1F2981222399F001
:105850008F819885098402C0959587950A94E2F70F
:1058600080FF09C00F2D10E020E030E085E3B50196
:10587000A4010E945C1F772099F08D819E8109848C
:1058800002C0959587950A94E2F780FD09C00F2D17
:1058900010E020E030E087E3B501A4010E945C1F26
:1058A00089859A8501969A878987089709F036CF66
:1058B000C3948091E110C81608F404CF2A960FB65D
:1058C000F894DEBF0FBECDBFCF91DF911F910F9136
:1058D000FF90EF90DF90CF90BF90AF909F908F9010
:1058E0007F906F905F904F903F902F900895909190
:1058F000D710991F9927991F8091D8108370880F0E
:10590000892B09F04BC080913808882309F046C0E4
:105910000E94204520910111309102114091031104
:10592000509104112115310541055105B9F02F554C
:105930003E4A4E4F5F4F261737074807590770F406
:105940001092011110920211109203111092041181
:105950008091D71081608093D71008952091FD1019
:105960003091FE104091FF1050910011211531052A
:105970004105510549F02F5E314F4F4F5F4F2617BC
:1059800037074807590750F46093FD107093FE10D5
:105990008093FF10909300110E94C27E0895FF92A1
:1059A0000F931F93DF93CF93CDB7DEB7C058D0408E
:1059B0000FB6F894DEBF0FBECDBF8091FC108823D8
:1059C00021F40E9471381092410F82E00E94F03859
:1059D000F82E082F10E086FF25C18FE08093FC1081
:1059E00081E00E9471388091410F833020F4813032
:1059F00008F0D4C004C0833009F014C1C2C0C8018B
:105A00008F7090708230910509F45BC084309105ED
:105A100009F495C0019709F005C1F7FE31C08DE189
:105A20000E94159D892B29F48FEF60E00E94932935
:105A3000F9C08EE10E94159D892B69F08091211398
:105A400090E023E0880F991F2A95E1F78E5D9C4E28
:105A5000E2E2F3E111C08EE599E060E00E943E3D94
:105A600086E092E160E041E00E941A1C86E892E044
:105A700022C0158214823896E817F907D0F3D2C0F5
:105A800082E599E060E00E943E3D86E092E160E0C0
:105A900041E00E941A1C84E892E00E941C3A609146
:105AA00002087091030886E092E14AE050E00E940B
:105AB0004EA18CE792E00E941C3A81E08093410F56
:105AC000B1C0F7FE32C08FE10E94159D892B71F4A1
:105AD00082ED90E161E00E943E3D86E092E160E06F
