:100000000C94C00B0C94E7A70C9418A80C9449A866
:100010000C94EB0B0C94EB0B0C94EB0B0C94EB0B88
:100020000C9460200C94EB0B0C94EB0B0C94EB0BEE
:100030000C94EB0B0C94EB0B0C94EB0B0C94EB0B68
:100040000C94EB0B0C94EB0B0C947AA80C94EB0B2C
:100050000C94FFAA0C9495AB0C94EB0B0C94EB0B4B
:100060000C94EB0B0C94EB0B0C9402A60C94EB0B86
:100070000C9438AB0C94D4AB0C94EB0B0C94EB0BB2
:100080000C94EB0B0C94EB0B0C94EB0B4E5450209C
:1000900053796E63696E672E2E2E007777772E6701
:1000A0006F6F676C652E636F6D002E7478740045FA
:1000B00078706563743A203130302D636F6E7469E7
:1000C0006E756500636C69656E742E73616E647A1B
:1000D0002E6875002F737200007D0022002C2269AB
:1000E000666B6579223A22007D002C2277746F229C
:1000F0003A7B005D002C005D002C002C005B003082
:100100005D2C227073223A5B002C002273626974AA
:1001100073223A5B002C002C22666C777274223AB0
:10012000002C0022666C637274223A002C00226359
:10013000757272223A005D2C002C002C002C002CD1
:10014000226C72756E223A5B002C226C73776322EC
:100150003A002C226C7763223A002C2265697022C7
:100160003A002C2273756E736574223A00222C2299
:1001700073756E72697365223A00222C2277746B54
:100180006579223A22002C226C6F63223A22002CDD
:100190002272647374223A002C227273223A002C69
:1001A000227264223A002C22656E223A002C226EC2
:1001B000627264223A002264657674223A002C004E
:1001C0002200220022736E616D6573223A5B007318
:1001D000746E5F7370650073746E5F617332007369
:1001E000746E5F6173310073746E5F736571007359
:1001F000746E5F646973006D61736F70320069675C
:100200006E6F72655F7261696E006D61736F700011
:100210005D7D00225D00225D2C005D2C22002C0003
:100220005D2C5B002C002C5B002C002C002C005B58
:10023000002C227064223A5B002C22706E73697A63
:1002400065223A002C226D6E7374223A002C226DC6
:100250006E70223A002C226E626F61726473223AD1
:1002600000226E70726F67223A007D002C22687740
:1002700074223A002C226D657870223A002C226498
:10028000657870223A002C00223A0022005D7D0041
:100290002C005B00222C007B226D6964223A220034
:1002A0005D2C002C00223A5B0022006D616B6572B0
:1002B0002E69667474742E636F6D002F7472696793
:1002C0006765722F737072696E6B6C65722F7769D8
:1002D00074682F6B65792F00227D005265626F6F05
:1002E0007465642E204465766963652049503A2020
:1002F00000252E005761746572206C6576656C2050
:10030000757064617465643A200045787465726E36
:10031000616C20495020757064617465643A2000F6
:100320002C20766F6C756D653A2000466C6F7720D7
:10033000636F756E743A200064652D61637469762D
:1003400061746564006163746976617465642E002C
:100350005261696E2073656E736F7220005261691D
:100360006E2064656C617920002520776174657268
:10037000206C6576656C2E002077697468200050CB
:10038000726F6772616D20004175746F6D61746981
:1003900063616C6C79207363686564756C65642057
:1003A000004D616E75616C6C79207363686564756E
:1003B0006C6564200020466C6F7720726174653A2A
:1003C0002000207365636F6E64732E00206D696E6C
:1003D00075746573200020636C6F7365642E20490B
:1003E000742072616E20666F7220005374617469AC
:1003F0006F6E20007B2276616C756531223A220097
:100400002020206C2020206C706D202020206D4149
:10041000002020204720202067706D202020206DA4
:100420004100692000302E2054657374202831204B
:100430006D696E29002E20002000486F6C642042F8
:100440003320746F20737461727400436C69636B42
:1004500020423320746F206C6973740052756E20D3
:10046000612050726F6772616D3A00286C73776318
:10047000290028656970290020286F736970290098
:100480003A002867776970290077746F7074732E4B
:100490007478740073746E732E6461740069666B93
:1004A00065792E747874006677760000747A00009F
:1004B000006E747000006468637000697031000041
:1004C00069703200006970330000697034000067A1
:1004D0007731000067773200006777330000677775
:1004E0003400006870300000687031000068777672
:1004F0000000657874000073657100007364740017
:10050000006D617300006D746F6E006D746F660036
:10051000757273000072736F0000776C00000064E6
:10052000656E000069706173006465766964636F6D
:100530006E00006C6974000064696D000062737481
:10054000000075777400006E747031006E74703244
:10055000006E747033006E747034006C67000000BD
:100560006D617332006D746F6E326D746F663266DA
:10057000776D0000667072300066707231007265CF
:10058000000000646E733100646E733200646E7339
:100590003300646E73340073617200006966650035
:1005A00000756673000075666C000075666100007A
:1005B0007566720000756667000075666D000075EF
:1005C000733100007564310000757332000075648A
:1005D0003200006373690000637361000075637229
:1005E0000000736361000073636300006661640070
:1005F0000068777300006677730000636D61000028
:1006000063666400006366660000757274000066CD
:100610006D7300006C6E7300006C6E670000726595
:1006200073657400006C0101FFFFFFFFFFFFFFFF18
:10063000FFFF000501FF30FFFFFF02FA0101FFFF8E
:10064000FFFFFAFFFFFFFFFF0130FFFF00FFFF0189
:10065000FFFFFFFF01FF02010264FFFF0201020131
:1006600002026401FF02FFFF01FFFF02030101011B
:100670004669726D776172652076657273696F6E17
:1006800054696D65207A6F6E652028474D54293A6C
:10069000456E61626C65204E54502073796E633FE5
:1006A000456E61626C6520444843503F2020202005
:1006B0005374617469632E6970313A2020202020C0
:1006C0005374617469632E6970323A2020202020AF
:1006D0005374617469632E6970333A20202020209E
:1006E0005374617469632E6970343A20202020208D
:1006F000476174657761792E6970313A2020202036
:10070000476174657761792E6970323A2020202024
:10071000476174657761792E6970333A2020202013
:10072000476174657761792E6970343A2020202002
:100730004854545020506F72743A202020202020BA
:100740002D2D2D2D2D2D2D2D2D2D2D2D2D2D2D2DD9
:1007500048617264776172652076657273696F6E45
:1007600023206F66206578702E20626F6172643A74
:100770002D2D2D2D2D2D2D2D2D2D2D2D2D2D2D2DA9
:1007800053746E2E2064656C61792028736563292B
:100790004D6173746572203120284D617331293A9F
:1007A0004D61733120206F6E2061646A7573743AF5
:1007B0004D617331206F66662061646A7573743AA7
:1007C00053656E736F7220747970653A2020202013
:1007D0004F70656E20456E61626C65284E4F293FF3
:1007E0005761746572696E67206C6576656C3A2036
:1007F00044657669636520656E61626C65643F205F
:1008000049676E6F72652070617373776F72643FB2
:100810004465766963652049443A202020202020E1
:100820004C434420636F6E74726173743A202020CD
:100830004C4344206272696768746E6573733A2032
:100840004C43442064696D6D696E673A2020202016
:10085000444320626F6F73742074696D653A202081
:100860005765617468657220616C676F2E3A20204D
:100870004E5450207365727665722E6970313A203D
:100880004E5450207365727665722E6970323A202C
:100890004E5450207365727665722E6970333A201B
:1008A0004E5450207365727665722E6970343A200A
:1008B000456E61626C65206C6F6767696E673F208B
:1008C0004D6173746572203220284D617332293A6C
:1008D0004D61733220206F6E2061646A7573743AC3
:1008E0004D617332206F66662061646A7573743A75
:1008F0004669726D77617265206D696E6F723A201C
:1009000050756C736520726174653A202020202038
:100910002D2D2D2D2D2D2D2D2D2D2D2D2D2D2D2D07
:1009200041732072656D6F7465206578742E3F2069
:10093000444E53207365727665722E6970313A2089
:10094000444E53207365727665722E6970323A2078
:10095000444E53207365727665722E6970333A2067
:10096000444E53207365727665722E6970343A2056
:100970005370656369616C20526566726573683F88
:10098000494654545420456E61626C653A20466C69
:100990006F7753656E736F723A2020202020556E5A
:1009A000697447616C6C6F6E3F2020202020466C7C
:1009B0006F77416C61726D54797065202020466CB0
:1009C0006F7752616E6765252020202020204672B7
:1009D0006565466C6F772067616C20202020467229
:1009E0006565466F77206D696E2020202020536F4B
:1009F000696C53656E736F72313A202020204F70FE
:100A0000656E20456E61626C65284E4F293F536FBD
:100A1000696C53656E736F72323A202020204F70DC
:100A2000656E20456E61626C65284E4F293F4375A7
:100A30007272656E742053656E736F723F204375DA
:100A40007272656E7420416C61726D3F2020437537
:100A50007272416C61726D52616E676520255374CC
:100A600061727443616C6962726174696F6E53651F
:100A70006E644C6F674461797320202020204661AA
:100A800074616C44697361626C655374617453473B
:100A900048572076657273696F6E3A20202053475D
:100AA00046572076657273696F6E3A202020436C3A
:100AB00069656E74206D6F64653F20202020436C53
:100AC0006F75645265667265736820287329466184
:100AD0007374205265667265736820287329537495
:100AE000617475735265706F727454797065466C79
:100AF0006173684D656D6F7279547970653F4C43D1
:100B0000442073697A6520323078343F20204C616C
:100B10006E67756167652048554E3F20202046610D
:100B200063746F72792072657365743F20200020B2
:100B30007365630025004E6F0059657300206D7367
:100B4000002E002B003030003A002D002B0000203A
:100B5000202020002D44697361626C6564212D00A2
:100B60003A0045004D433A0020284D414329002DCD
:100B7000002E004D6F6E005475650057656400547B
:100B8000687500467269005361740053756E000009
:100B90002D0020002020003A0020002000486F6C2B
:100BA0006420423320746F20736176650042312FD8
:100BB00042323A2B2F2D2C2042333A2D3E003D3D20
:100BC000536574204F7074696F6E733D3D00506CB7
:100BD0006561736520576169742E2E2E005265730E
:100BE000657474696E672E2E2E002F002A002F6305
:100BF0006D003F70773D2445267369643D2444268B
:100C0000656E3D244426743D244400656E6761672B
:100C10006520626F6F73746572004572726F722027
:100C2000436F64653A203078324400534420636156
:100C30007264206D697373696E6700436F6E6E65D1
:100C40006374696E672E2E2E00466C6F7720537486
:100C50006F70706564202020204672666C6F77206C
:100C60005175616E74416C726D4672666C6F77205F
:100C700054696D65416C61726D4C65616B6167654E
:100C800020416C61726D2020204C65616B6167654D
:100C90002053746F70706564204869676820466CE3
:100CA0006F7720416C61726D204C6F7720466C6FBE
:100CB0007720416C61726D20466174616C20466CD6
:100CC0006F7720416C61726D486967682043757267
:100CD00072656E7420416C6D4C6F77204375727233
:100CE000656E7420416C726D0063766A6364706334
:100CF0007063726D7075706A70636F6A6F73706A1B
:100D000073636D63736A6E6A656A6C646C73756332
:100D1000756A61003C7363726970743E77696E64D2
:100D20006F772E6C6F636174696F6E3D222F223B6B
:100D30003C2F7363726970743E0A0022726573758A
:100D40006C74223A24447D0022726573756C74229F
:100D50003A24447D00244600222446223A24447D3D
:100D6000007D002C2273746174696F6E73223A7B6C
:100D7000002C22737461747573223A7B002C226FED
:100D80007074696F6E73223A7B002C2270726F67E9
:100D900072616D73223A7B002273657474696E67A9
:100DA00073223A7B00646179005D002453002C00BB
:100DB0005B007479706500656E64007374617274B1
:100DC0000068697374007400656E00736964005D87
:100DD0002C226E73746174696F6E73223A24447DA1
:100DE000002C0024440022736E223A5B006370776B
:100DF000006E70770077746F007474740069666BAE
:100E000065790077746B6579006C6F630077737038
:100E1000006A737000726500726400656E00726231
:100E2000740072736E003C6D657461206E616D6557
:100E30003D2276696577706F72742220636F6E74DD
:100E4000656E743D2277696474683D646576696394
:100E5000652D77696474682C696E697469616C2D9D
:100E60007363616C653D312E302C6D696E696D75F3
:100E70006D2D7363616C653D312E302C7573657219
:100E80002D7363616C61626C653D6E6F223E0D0A6D
:100E9000003C736372697074207372633D22244551
:100EA0002F686F6D652E6A73223E3C2F73637269E3
:100EB00070743E0A3C2F626F64793E0A3C2F68745E
:100EC0006D6C3E00766172207665723D24442C691B
:100ED0007061733D24443B3C2F7363726970743EB0
:100EE0000A003C21444F43545950452068746D6CAE
:100EF0003E0A3C68746D6C3E0A3C686561643E0A5B
:100F000024463C2F686561643E0A3C626F64793E0A
:100F10000A3C7363726970743E007D002C2269661E
:100F20006B6579223A22245322002C2277746F2297
:100F30003A7B24537D005D002C005B24442C244C20
:100F40002C244C5D00305D2C227073223A5B00240F
:100F5000442C00227362697473223A5B0022666C2F
:100F6000637274223A244C2C22666C777274223A93
:100F700024442C002263757272223A24442C0022ED
:100F800064657674223A244C2C226E627264223A92
:100F900024442C22656E223A24442C227264223A84
:100FA00024442C227273223A24442C2272647374D7
:100FB000223A244C2C226C6F63223A222445222CA4
:100FC0002277746B6579223A222445222C2273758C
:100FD0006E72697365223A24442C2273756E7365B0
:100FE00074223A24442C22656970223A244C2C2223
:100FF0006C7763223A244C2C226C737763223A2458
:101000004C2C226C72756E223A5B24442C24442CA6
:1010100024442C244C5D2C003C666F726D206E6164
:101020006D653D6F6620616374696F6E3D63752009
:101030006D6574686F643D6765743E3C7461626C95
:10104000652063656C6C73706163696E673D223106
:1010500032223E3C74723E3C74643E3C623E4A61C5
:1010600076615363726970743C2F623E3A3C2F7410
:10107000643E3C74643E3C696E7075742074797093
:10108000653D746578742073697A653D3430206DF0
:1010900061786C656E6774683D34302076616C757C
:1010A000653D22244522206E616D653D6A73703E68
:1010B0003C2F74643E3C2F74723E3C74723E3C7410
:1010C000643E44656661756C743A3C2F74643E3CC2
:1010D00074643E24533C2F74643E3C2F74723E3C37
:1010E00074723E3C74643E3C623E57656174686550
:1010F000723C2F623E3A3C2F74643E3C74643E3C2A
:10110000696E70757420747970653D7465787420AB
:1011100073697A653D3430206D61786C656E6774F3
:10112000683D34302076616C75653D22244522206F
:101130006E616D653D7773703E3C2F74643E3C2F4D
:1011400074723E3C74723E3C74643E4465666175E4
:101150006C743A3C2F74643E3C74643E24533C2FC0
:1011600074643E3C2F74723E3C74723E3C74643E28
:101170003C623E50617373776F72643C2F623E3AFB
:101180003C2F74643E3C74643E3C696E7075742000
:10119000747970653D70617373776F7264207369E1
:1011A0007A653D3332206E616D653D70773E203C3F
:1011B000696E70757420747970653D7375626D69C0
:1011C000743E3C2F74643E3C2F74723E3C2F74611D
:1011D000626C653E3C2F666F726D3E3C7363726954
:1011E0007074207372633D68747470733A2F2F7536
:1011F000692E6F70656E737072696E6B6C65722E9E
:10120000636F6D2F6A732F6861736865722E6A73DE
:101210003E3C2F7363726970743E005D7D00225DF9
:1012200000225D2C00245300244C5D2C2200244C11
:101230002C0024445D2C5B0024442C005B24442CB3
:1012400024442C24442C5B00226E70726F6773223E
:101250003A24442C226E626F61726473223A2444F1
:101260002C226D6E70223A24442C226D6E737422EF
:101270003A24442C22706E73697A65223A24442CF5
:10128000227064223A5B002C2264657870223A2432
:10129000442C226D657870223A24442C226877749D
:1012A000223A24447D002C00222453223A24440074
:1012B00050726F6772616D20006E616D65007069BC
:1012C0006400706964007069640075777400706907
:1012D0006400736400737400736964007D002224E9
:1012E00044223A7B227374223A24442C22736422CF
:1012F0003A222453227D002C005D2C226D61786CF3
:10130000656E223A24447D002C00222453220022C0
:10131000736E616D6573223A5B0073746E5F7370F8
:10132000650073746E5F6173320073746E5F617316
:10133000310073746E5F7365710073746E5F6469FE
:1013400073006D61736F70320069676E6F72655FF5
:101350007261696E006D61736F70005D2C002C000E
:10136000244400222446223A5B00707700485454FB
:10137000502F312E3120323030204F4B0D0A004398
:101380006F6E74656E742D547970653A206170705B
:101390006C69636174696F6E2F6A736F6E0D0A43B7
:1013A0006F6E6E656374696F6E3A20636C6F736500
:1013B0000D0A004163636573732D436F6E74726F22
:1013C0006C2D416C6C6F772D4F726967696E3A2096
:1013D0002A0D0A0043616368652D436F6E74726F56
:1013E0006C3A206D61782D6167653D302C206E6F01
:1013F0002D63616368652C206E6F2D73746F726549
:101400002C206D7573742D726576616C69646174DE
:10141000650D0A007B0024462446244624460D0A16
:1014200000436F6E74656E742D547970653A207444
:101430006578742F68746D6C0D0A00244624462468
:101440004624460D0A00000108000604000145007C
:101450000082000040002000504F535420244624B6
:101460005320485454502F312E300D0A486F737456
:101470003A2024460D0A2446245341636365707460
:101480003A202A2F2A0D0A436F6E74656E742D4C14
:10149000656E6774683A2024440D0A436F6E746564
:1014A0006E742D547970653A206170706C69636157
:1014B00074696F6E2F6A736F6E0D0A0D0A245300E4
:1014C000474554202446245320485454502F312E4D
:1014D000300D0A486F73743A2024460D0A24460DD5
:1014E0000A0D0A0000504F5354202446245320482C
:1014F0005454502F312E300D0A486F73743A202403
:10150000530D0A244624534163636570743A202ABC
:101510002F2A0D0A436F6E74656E742D4C656E67CD
:1015200074683A2024440D0A436F6E74656E742DFE
:10153000547970653A206170706C69636174696F89
:101540006E2F6A736F6E0D0A0D0A245300474554BF
:10155000202446245320485454502F312E300D0A55
:10156000486F73743A2024530D0A24460D0A0D0A5D
:10157000004163636570743A20746578742F6874F1
:101580006D6C004163636570743A20746578742FE4
:1015900068746D6C00E30004FA0001000000012A89
:1015A000002F776561746865720024442E70793F5E
:1015B0006C6F633D2445266B65793D24452666772F
:1015C000763D24442677746F3D2453007264007482
:1015D0007A007363616C65006569700073756E7382
:1015E00065740073756E72697365007C3C3E5E2B9A
:1015F0003D3F2F5B5D3B2C2A225C00000021002434
:101600000027002A0000002200250028002B0000EF
:10161000002000230026002900020202020202022A
:101620000204040404040404040303030303030383
:101630000301010101010101010102040810204020
:10164000800102040810204080010204081020409C
:101650008080402010080402010000000102000008
:101660000000000000040307060000000000000066
:1016700000000000000000000000407A10F35A0053
:10168000A0724E18090010A5D4E80000E8764817AB
:101690000000E40B54020000CA9A3B000000E1F590
:1016A00005000080969800000040420F000000A056
:1016B0008601000000102700000000E80300000081
:1016C000006400000000000A0000000000010000AB
:1016D0000000002C76D888DC674F0823DFC1DFAE1E
:1016E00059E1B1B796E5E3E453C63AE651997696E7
:1016F000E8E6C28426EB898C9B62ED407C6FFCEFB0
:10170000BC9C9F40F2BAA56FA5F490055A2AF75CDD
:10171000936B6CF9676DC11BFCE0E40D47FEF5208F
:10172000E6B500D0ED902E03009435770500808457
:101730001E080000204E0A000000C80C333333336B
:101740000F986E12831141EF8D2114893BE65516D7
:10175000CFFEE6DB18D1844B381BF77C1D901DA40F
:10176000BBE424203284725E228100C9F124ECA102
:10177000E53D2700D719A820E345B88E9EA43EADCD
:1017800011241FBECFEFD0E4DEBFCDBF1AE0A0E032
:10179000B1E0E6EAF9E601E00BBF02C007900D9266
:1017A000A832B107D9F71BBE1FE1A8E2BAE001C019
:1017B0001D92A130B107E1F717E1C0E8D7E104C0FD
:1017C0002297FE010E9496B4C437D107C9F70E9440
:1017D000D4AD0C94D1B40C940000EF92FF920F930F
:1017E0001F93F22FF02E47FD02C0E4E001C0E4E1B8
:1017F000242F332727FD309537FF03C030952195DF
:101800003F4F4F2D512F0F2FEE2E0E946F118F2D16
:10181000912F1F910F91FF90EF900895CF93DF9339
:10182000BC018230910510F462E070E0A091FF1ECF
:10183000B091001FED01E0E0F0E040E050E021C099
:10184000888199818617970769F48A819B813097EF
:1018500019F09383828304C09093001F8093FF1E2E
:10186000FE0134C06817790738F44115510519F0A5
:101870008417950708F4AC01FE018A819B819C01C5
:10188000E9012097E9F641155105A9F1CA01861B26
:10189000970B049708F4BA01E0E0F0E02AC08D91BC
:1018A0009C91119784179507F9F46417750781F4D3
:1018B00012968D919C911397309719F093838283A0
:1018C00004C09093001F8093FF1EFD0132964CC010
:1018D000CA01861B970BFD01E80FF91F61937193F5
:1018E00002978D939C9340C0FD01828193819C015E
:1018F000D9011097A1F68091FD1E9091FE1E892BB3
:1019000041F48091F9089091FA089093FE1E80931B
:10191000FD1E4091FB085091FC084115510541F412
:101920004DB75EB78091F7089091F808481B590BA6
:101930002091FD1E3091FE1ECA01821B930B86175B
:10194000970780F0AB014E5F5F4F8417950750F00B
:10195000420F531F5093FE1E4093FD1EF9016193E9
:10196000719302C0E0E0F0E0CF01DF91CF910895E4
:10197000CF93DF93009709F450C0EC0122971B82AC
:101980001A82A091FF1EB091001F109709F140E04C
:1019900050E0AC17BD0708F1BB83AA83FE0121917B
:1019A0003191E20FF31FAE17BF0779F48D919C912F
:1019B0001197280F391F2E5F3F4F398328831296C6
:1019C0008D919C9113979B838A834115510571F4E6
:1019D000D093001FC093FF1E20C012968D919C9142
:1019E0001397AD01009711F0DC01D3CFFA01D38337
:1019F000C28321913191E20FF31FCE17DF0769F403
:101A000088819981280F391F2E5F3F4FFA0131835A
:101A100020838A819B8193838283DF91CF91089574
:101A2000A0E0B0E0E6E1FDE00C949CB46C0100970E
:101A300029F4CB010E940E0C6C01C1C08EEF882EE0
:101A40008FEF982E8C0C9D1C8601060F171F081512
:101A5000190508F4B2C0F401A081B181A617B70737
:101A6000B8F0A530B10508F4AAC0CD0104978617D7
:101A7000970708F4A4C01297A61BB70BF801A1930F
:101A8000B193D4016D937C93CF010E94B80C97C0A1
:101A90007B01EA1AFB0AEEEFFFEFEE0EFF1E3601A6
:101AA0006A0E7B1EC091FF1ED091001F4424552456
:101AB000AA24BB244AC0C615D705E1F5488159813F
:101AC0004E155F05B8F1CA0104978E159F05B0F455
:101AD0001296A40FB51FF401B183A0832A813B8124
:101AE0004114510431F0D20113963C932E93129776
:101AF00066C03093001F2093FF1E61C08A819B81C6
:101B0000F80193838283425050404E195F095183FC
:101B100040834114510431F0D20113961C930E936B
:101B2000129704C01093001F0093FF1EF4017183ED
:101B3000608345C088819981A816B90608F45C01C4
:101B40002E018A819B819C01E901209709F0B3CF86
:101B50008091FD1E9091FE1E86159705E9F4A6164C
:101B6000B706D0F42091FB083091FC08211531050F
:101B700041F42DB73EB78091F7089091F808281BE3
:101B8000390B02171307C8F41093FE1E0093FD1EB5
:101B9000D4016D937C9313C0CB010E940E0CEC0119
:101BA000009759F0F40140815181B6010E94570E0F
:101BB000C6010E94B80C6E0102C0CC24DD24C6010F
:101BC000CDB7DEB7E0E10C94B8B4FC0188279927C3
:101BD000E89421912032E9F3293010F02E30C8F337
:101BE0002B3241F02D3239F4689404C00E94410F29
:101BF000820F911D219120532A30C0F31EF490953D
:101C000081959F4F08951F93FC0199278827BC0158
:101C1000E89411911032E9F3193010F01E30C8F336
:101C20001B3251F01D3249F4689406C00E942C0FFB
:101C3000610F711D811D911D119110531A30B0F368
:101C40003EF490958095709561957F4F8F4F9F4F93
:101C50001F910895FB01DC0102C005900D924150D7
:101C60005040D8F70895FB01DC010D900020E9F702
:101C7000119705900D920020E1F70895FB01DC011A
:101C800005900D920020E1F7089548E25AE00E9485
:101C9000A10E0895FB01DC0104C08D910190801913
:101CA00021F441505040C8F7881B990B0895FB015F
:101CB000DC0102C001900D9241505040D8F70895C8
:101CC000DC0101C06D9341505040E0F70895FB01E5
:101CD000DC010D900020E9F7119701900D92002092
:101CE000E1F70895FC018191861721F08823D9F747
:101CF000992708953197CF010895FB01DC010190E8
:101D00000D920020E1F70895FB01DC0141505040A5
:101D100030F08D910190801919F40020B9F7881BDB
:101D2000990B0895FB01DC014150504048F00190AF
:101D30000D920020C9F701C01D9241505040E0F7BC
:101D40000895009731F4DA018D919C91009709F480
:101D50000EC0DC01FB013D912191222319F03217C5
:101D6000C9F3FACF332331F4DA011D921C9288278C
:101D7000992708951197AF93BF93FB013D9121914E
:101D8000321771F4332321F488279927119702C061
:101D90001E921196FA01A193B0839F918F9108959D
:101DA000222369F7EACFA0E0B0E0E9EDFEE00C9471
:101DB000A4B47C01EB018A01690109C0CE0121961E
:101DC000F6010995F70181937F010150104001153B
:101DD0001105A1F7CDB7DEB7E8E00C94C0B4A0E0E0
:101DE000B0E0E5EFFEE00C94A4B4EC017B018A01C5
:101DF000690109C0CE012196F70161917F01F601C9
:101E000009950150104001151105A1F7CDB7DEB7B6
:101E1000E8E00C94C0B4FB019F01E8944230C4F0A8
:101E20004532B4F44A3029F497FB1EF4909581951D
:101E30009F4F642F77270E9430B4805D8A330CF067
:101E4000895D8193CB010097A1F716F45DE2519370
:101E50001082C9010C94BF13592F482F372F262FFA
:101E6000660F771F881F991F660F771F881F991F9E
:101E7000620F731F841F951F660F771F881F991F9E
:101E800008957AE0979F902D879F802D910D1124C2
:101E90000895FA01CF93FF93EF932230CCF02532CF
:101EA000BCF4C22F2C2F332744275527FF93EF93E1
:101EB0000E9457B4EF91FF91605D6A330CF0695D49
:101EC0006193B901CA01605070408040904051F761
:101ED00010828F919F91CF910C94BF13AEE0B0E030
:101EE000E4E7FFE00C94A8B40D891E8986E08C839A
:101EF0001A8309838FEF9FE79E838D839E01275E60
:101F00003F4FCE0101966F89788DA9010E94920FF3
:101F10002F813885020F131FF80110822E96E4E0FE
:101F20000C94C4B4ABE0B0E0E8E9FFE00C949AB4E0
:101F30003C012B015A01FC0117821682838181FD2D
:101F400003C06FEF7FEFC6C19AE0892E1E0108948F
:101F5000211C311CF3012381F20123FD859123FF14
:101F600081912F01882309F4B2C1853239F423FD10
:101F7000859123FF81912F01853229F490E0B301EF
:101F80000E94CF13E7CF982FFF24EE249924FFE17E
:101F9000FF15D0F09B3269F09C3228F4903259F052
:101FA000933291F40EC09D3249F0903369F441E0D0
:101FB00024C052E0F52A84E0F82A28C098E0F92AE3
:101FC00025C0E0E1FE2A22C0F7FC29C0892F8053FA
:101FD0008A3070F4F6FE05C0989C902C1124980E5F
:101FE00015C0E89CE02C1124E80EF0E2FF2A0EC098
:101FF0009E3229F4F6FC6BC140E4F42A07C09C36FB
:1020000019F450E8F52A02C0983649F4F20123FD8C
:10201000959123FF91912F01992309F0B8CF892F32
:102020008554833018F08052833038F444E050E017
:10203000A40EB51E5FE359830FC0933631F093377A
:1020400079F0933509F056C020C0F501808189836D
:1020500042E050E0A40EB51E610101E010E012C0A4
:10206000F501C080D180F6FC03C06FEF7FEF02C0A6
:10207000692D70E042E050E0A40EB51EC6010E943A
:10208000B4138C015FE7F52214C0F501C080D18044
:10209000F6FC03C06FEF7FEF02C0692D70E042E0F5
:1020A00050E0A40EB51EC6010E94A9138C0150E891
:1020B000F52AF3FE07C01AC080E290E0B3010E9447
:1020C000CF13EA948E2D90E008171907A8F30EC0DD
:1020D000F601F7FC8591F7FE81916F0190E0B30165
:1020E0000E94CF13E110EA94015010400115110530
:1020F00079F7EAC0943611F0993669F5F7FE08C011
:10210000F501208131814281538184E090E00AC051
:10211000F501808191819C01442737FD4095542F22
:1021200082E090E0A80EB91E9FE6F92257FF09C091
:1021300050954095309521953F4F4F4F5F4FE0E8C8
:10214000FE2ACA01B901A1012AE030E00E94FB1376
:10215000D82ED21840C0953729F41F2D1F7E2AE0B3
:1021600030E01DC01F2D197F9F3661F0903720F49D
:10217000983509F0ACC00FC0903739F0983709F0A6
:10218000A6C004C028E030E00AC0106114FD14604D
:1021900020E130E004C014FD166020E132E017FFBA
:1021A00008C0F501608171818281938144E050E033
:1021B00008C0F50180819181BC0180E090E042E09F
:1021C00050E0A40EB51EA1010E94FB13D82ED21818
:1021D0008FE7F82EF122F6FE0BC05EEFF522D91440
:1021E00038F4F4FE07C0F2FC05C08FEEF82202C0FE
:1021F0001D2D01C0192DF4FE0DC0FE01ED0DF11DC8
:102200008081803319F499EEF92208C01F5FF2FE35
:1022100005C003C08F2D867809F01F5F0F2DF3FCDA
:1022200014C0F0FE0FC01E1510F09D2C0BC09D2C8D
:102230009E0C911A1E2D06C080E290E0B3010E9410
:10224000CF131F5F1E15C0F304C01E1510F4E11A52
:1022500001C0EE2404FF0FC080E390E0B3010E94B0
:10226000CF1302FF1DC001FD03C088E790E00EC040
:1022700088E590E00BC0802F867891F001FF02C0C6
:102280008BE201C080E2F7FC8DE290E0B3010E9496
:10229000CF1306C080E390E0B3010E94CF139A945D
:1022A000D914C0F3DA94F101ED0DF11D808190E0B5
:1022B000B3010E94CF13DD20A9F706C080E290E0B1
:1022C000B3010E94CF13EA94EE20C1F743CEF3018D
:1022D00066817781CB012B96E2E10C94B6B4A9E03C
:1022E000B0E0E5E7F1E10C949EB46A01122FA02E54
:1022F000BE2C2BE3201718F42CE3922E02C0902E54
:102300009394AE014F5F5F4F27E0092D0E94D112D9
:10231000BC018981E82EFF24C70189709070019764
:1023200011F4ADE209C0B1FE02C0ABE205C0B0FCE1
:1023300002C0A0E001C0A0E2E3FE3BC0AA2311F46A
:1023400023E001C024E0211710F020E002C0121B9E
:10235000212FEB2CB4FE02C0322F0AC0F601322F1F
:1023600080E202C0819331503323E1F7C20ED11CC9
:10237000AA2319F0F601A1936F01F6013196E2FE4E
:1023800005C09EE4D6019C9381E404C09EE6D6017C
:102390009C9381E611968C9391833296DF01832F73
:1023A00090E202C09D9381508823E1F7E30FF11D75
:1023B00040C0E2FE42C0AA2311F423E001C024E0A1
:1023C000211710F020E002C0121B212FEB2CB4FECD
:1023D00002C0922F0AC0F601922F80E202C08193C0
:1023E00091509923E1F7C20ED11CAA2319F0F601EE
:1023F000A1936F01F6013196E2FE08C089E4D6018F
:102400008C938EE411968C9386E407C089E6D601FE
:102410008C938EE611968C9386E681833296DF014B
:10242000892F20E202C02D9381508823E1F7E90F24
:10243000F11D10822EEF3FEFAFC0161617061CF0ED
:1024400041E050E003C0AB014F5F5F4FAA2019F499
:1024500080E090E003C08A2D90E0019620E030E01B
:10246000AA2311F021E030E0240F351F280F391F77
:10247000812F90E02817390714F020E002C0121BCA
:10248000212F4B2D50E0CA0180719070B4FC0DC01B
:10249000B3FC0BC0F601322F40E202C04193315031
:1024A0003323E1F7C20ED11C01C0322FAA2319F049
:1024B000F601A1936F01892B11F0132F0AC0F601C9
:1024C000132F80E302C0819311501123E1F7C30E53
:1024D000D11C092D060FBA8090E1892E912C8E20F7
:1024E0009F20E4FE04C0F1E3BF1609F4015010166A
:1024F00014F001E003C0093008F008E09B0177FF09
:1025000002C020E030E0CB010196821B930BFE015C
:102510003196E80FF91F8EE2F82E3B01601A710820
:102520008A2D90E044275527481B590B8FEF2F3FEA
:10253000380719F4D601FD926D01621773072CF06C
:102540006216730614F4808101C080E3215030408C
:1025500031962417350724F0D6018D936D01E6CF0F
:102560002617370749F4B5E3BB1528F0BB1621F44D
:102570008114910409F481E3F6018193D601812F3E
:1025800090E202C09C93815011968823D9F7E10F05
:10259000F11D108220E030E0C9012996EEE00C9494
:1025A000BAB4283008F027E03327DA01990F311D3B
:1025B00087FD916000966105710539F432602E5FE8
:1025C0003D9330E32A95E1F708959F3F30F080383E
:1025D0007105610509F03C5F3C5F3D93913008F067
:1025E0008068911DDF93CF931F930F93FF92EF921B
:1025F000192F987F9695E92F96959695E90FFF27C5
:10260000ED52F94E99273327EE24FF24A701E70165
:1026100005900894079428F4360FE71EF81E491F0A
:10262000511D660F771F881F991F0694A1F705900B
:10263000079428F4E70EF81E491F561FC11D770F97
:10264000881F991F661F0694A1F70590079428F428
:10265000F80E491F561FC71FD11D880F991F661FEF
:10266000771F0694A1F70590079420F4490F561F91
:10267000C71FD81F990F661F771F881F0694A9F7D9
:1026800084911095177041F0D695C7955795479549
:10269000F794E7941A95C1F7E9E7F6E16894159085
:1026A000159135916591959105907FE27395E118AB
:1026B000F10A430B560BC90BD009C0F7E10CF11E10
:1026C000431F561FC91FD01D7EF4703311F48A9525
:1026D000E6CFE894015030F0080F0AF40027021703
:1026E00008F4202F2395022F7A3328F079E37D9385
:1026F0002A95E9F710C07D932A9589F60694979557
:102700006795379517951794E118F10A430B560B07
:10271000C90BD00998F023957E9173957A3308F010
:1027200070E37C932013B8F77E9170617D9330F055
:10273000839571E37D9370E32A95E1F71124EF907F
:10274000FF900F911F91CF91DF91992787FD909571
:102750000895FC010590615070400110D8F78095F4
:1027600090958E0F9F1F0895FC016150704001905D
:102770000110D8F7809590958E0F9F1F0895DC016A
:10278000FC01672F71917723E1F7329704C07C91A8
:102790006D9370836291AE17BF07C8F308950F93CE
:1027A0001F93CF93DF938C01EB018B8181FF1BC0C3
:1027B00082FF0DC02E813F818C819D8128173907B2
:1027C00064F4E881F9810193F983E88306C0E88520
:1027D000F985802F0995892B31F48E819F8101968F
:1027E0009F838E8302C00FEF1FEFC801DF91CF914F
:1027F0001F910F910895FA01AA27283051F1203135
:1028000081F1E8946F936E7F6E5F7F4F8F4F9F4F84
:10281000AF4FB1E03ED0B4E03CD0670F781F891FC6
:102820009A1FA11D680F791F8A1F911DA11D6A0F94
:10283000711D811D911DA11D20D009F468943F9147
:102840002AE0269F11243019305D3193DEF6CF0146
:102850000895462F4770405D4193B3E00FD0C9F70C
:10286000F6CF462F4F70405D4A3318F0495D31FD79
:102870004052419302D0A9F7EACFB4E0A6959795CC
:10288000879577956795BA95C9F7009761057105A2
:1028900008959B01AC010A2E0694579547953795EC
:1028A0002795BA95C9F7620F731F841F951FA01D46
:1028B00008950E94083C08950E94EE390895DF9320
:1028C000CF9300D000D000D0CDB7DEB7DE01119697
:1028D000E1EBF9E086E001900D928150E1F786E1AD
:1028E00091E0E0E9FAE0DF019C011D9221503040C7
:1028F000E1F780912A0A833019F460E87AE003C096
:10290000BE016F5F7F4F84E490E043E450E00E949B
:102910009E8080912A0A833039F080E99AE0BE01D6
:102920006F5F7F4F0E94978E81E08093BA0A8093F9
:10293000BB0A86E08093BC0A8091370A9091380ADE
:10294000A091390AB0913A0A8093BE0A9093BF0AC7
:10295000A093C00AB093C10A80912A0A833039F447
:102960008AEB9AE00C9660E77AE00E949F8E86EDF3
:102970009AE06AE67AE00E94978EA6EABBE0E3E07E
:10298000F9E002C081918D9339E0E930F307D1F786
:1029900090912A0A992311F083E001C081E080938D
:1029A000AC0B8DE38093AD0B87E08093AE0B81E0A1
:1029B0008093AF0BA0EBBBE0EAE6FAE002C08191A6
:1029C0008D938AE0E037F807D1F78CE08093B60B5F
:1029D00085E08093B70BEDEFF8E0A8EBBBE002C019
:1029E00081918D9329E0E230F207D1F72DEB3BE0A6
:1029F00030933F0A20933E0A913069F582E3809339
:102A0000BD0B84E08093BE0BD9011296E0E7FAE09B
:102A100002C081918D933AE0E437F307D1F786E362
:102A20008093C30B84E08093C40B85EC9BE0909370
:102A30003F0A80933E0ADC01E0E8FAE002C081919F
:102A40008D938AE0E438F807D1F789EC9BE0909306
:102A50003F0A80933E0A20913D0A222311F094E020
:102A600001C093E0A0913E0AB0913F0AFD0187E3C7
:102A7000819311969C93DF01119681E08183FD0182
:102A8000319683E011968C93DF01119686E0818365
:102A9000CD01019690933F0A80933E0A222339F09C
:102AA00011962C93019690933F0A80933E0AE091F1
:102AB0003E0AF0913F0A8FEF8193F0933F0AE09333
:102AC0003E0ACF018A5B9A400E94848226960FB606
:102AD000F894DEBF0FBECDBFCF91DF910895BF92B6
:102AE000CF92DF92EF92FF920F931F93CF93DF93DA
:102AF0008C0180912A0A823009F401C1833030F4BC
:102B0000882351F1813009F076C14BC0833021F028
:102B1000843009F070C1F3C00E94168A20912F0AF8
:102B20003091300A4091310A5091320AE0902B0ADC
:102B3000F0902C0A00912D0A10912E0A2E0D3F1DA7
:102B4000401F511F261737074807590708F053C180
:102B50000E945F1484E018C00E94C2A86093370AE4
:102B60007093380A8093390A90933A0A1092700A47
:102B70001092710A1092720A1092730A0E945F14E6
:102B800081E00E94791A81E080932A0A0E94C2A8FB
:102B90006093330A7093340A8093350A9093360A0F
:102BA0002AC10634110508F4DEC08091B30A8334CB
:102BB00009F0D9C02091BE0A3091BF0A4091C00AE5
:102BC0005091C10A8091370A9091380AA091390A30
:102BD000B0913A0A281739074A075B0709F0C3C0C2
:102BE000CAEADBE0FE01A8014057554FDF0111960C
:102BF00091819D012F5F3F4F8081853329F411968C
:102C00008C91823009F4CEC0F901E90FF11DE4176F
:102C1000F50760F3A8C0FE019191B980EF012196FC
:102C20009333E1F0943340F4933091F0963099F07F
:102C3000913009F04FC009C09A3381F09F3F09F4E9
:102C40005AC0963309F046C03FC084E79AE03EC0C0
:102C50008CE79AE03BC084E89AE038C0818190E03C
:102C6000A0E0B0E0BA2FA92F982F88272981820FE2
:102C7000911DA11DB11DBA2FA92F982F88272A8138
:102C8000820F911DA11DB11DBA2FA92F982F882742
:102C90002B81820F911DA11DB11D80932F0A90934E
:102CA000300AA093310AB093320A81589145A1406D
:102CB000B04008F499C0C0922F0AD092300AE09236
:102CC000310AF092320A90C080E89AE0BE010E9478
:102CD0009F8E8AC0E0913B0AF0913C0A309709F43C
:102CE00083C080913D0A981709F07EC0892FBE01EC
:102CF0004B2D099579C00E945F1482E045CF0634C0
:102D0000110588F18091B30A833469F52091BE0AD8
:102D10003091BF0A4091C00A5091C10A8091370A90
:102D20009091380AA091390AB0913A0A28173907C8
:102D30004A075B07C1F4EAEAFBE0A8014057554F98
:102D4000DF01119691819D012F5F3F4F8081853377
:102D500021F411968C918530A9F1F901E90FF11D4B
:102D6000E417F50768F30E94C2A82091330A309156
:102D7000340A4091350A5091360A205F384D4F4F42
:102D80005F4F261737074807590748F034C08CE7CC
:102D90009AE00E94048183E080932A0A2CC010925A
:102DA0002A0A29C080E79AE06AEC7AE00E949F8EA6
:102DB00080E8C82E81E5D82E81E0E82EF12C00575E
:102DC000154F29CF81E00E94681A0E94168A6093ED
:102DD0002B0A70932C0A80932D0A90932E0A8091CF
:102DE0007C0A8823C1F2D3CFCB0DD11DC017D107E8
:102DF00008F411CF80CFDF91CF911F910F91FF90F9
:102E0000EF90DF90CF90BF900895CF93DF9381E054
:102E100080938C0A90916F0A892F82958F708F5BB7
:102E2000809300099F709F5B9093010910922A0A7A
:102E30000E94C2A8EB0104C00E94C91A0E946F152B
:102E400080912A0A833061F00E94C2A86C1B7D0B1E
:102E50006053754728F40E948A1A882389F3ECCFBF
:102E60000E94687F10928F0A10928E0A90E08091E3
:102E70002A0A833009F491E0892FDF91CF910895D8
:102E8000FF920F931F93CF93DF938C01F62E0E9436
:102E9000C2A8EB010CC00E94C91A0E9451830E9473
:102EA000C2A86C1B7D0B6053754708F0EFC00E94F1
:102EB0008A1A882381F30E94C2A8EB010CC00E94E9
:102EC000C91A0E9451830E94C2A86C1B7D0B6053DB
:102ED000754708F0DBC00E94627F882381F710925B
:102EE000880A1092890A10928A0A10928B0A80919D
:102EF000400A8F5F8093400A8091840A882361F49E
:102F000088E098E0A8E0B8E08093840A9093850A6E
:102F1000A093860AB093870A8091400A90E0906E51
:102F200064E87AE045E350E00E949E80EAEBFAE034
:102F30008CE0DF011D928A95E9F7DF011C9690E095
:102F4000FF2019F0F801808102C0F80184910F5F21
:102F50001F4F8E3241F0882331F09F5FFD01E90F52
:102F6000F11D8083EDCFFD019193DF01A90FB11D0C
:102F7000882329F7FD01119211961C92DF01119609
:102F800041E04183FD01319611961C92418386ED0B
:102F900020E93AE0821B32968E0F8093BA0A909114
:102FA000400A9093BB0A4093BC0A4093BF0A90E04A
:102FB0000E9484820E94C2A88B0161C00E94C2A8A4
:102FC000601B710B6053754708F060C00E94C91AFE
:102FD000EC01009709F453C00E945183892B09F03A
:102FE0004EC0C634D10508F44AC08091B30A853377
:102FF00009F045C08091B40A803E09F040C090912C
:10300000B50A8091400A9817D1F58091BB0A8917BB
:10301000B1F58091BD0A90E08F709070892BB1F569
:103020008091BA0AE82FF0E0E654F54F9E01205750
:10303000354F8081807C39F0329609C080818823A9
:1030400011F4319604C03196E217F307B8F3CF01BB
:103050000E962817390798F08181813051F48185C7
:10306000843039F43A9688E89AE0BF010E949F8E36
:1030700006C0818590E00A96E80FF91FDACF8091AB
:10308000880A882309F49ACF81E001C080E0DF91AB
:10309000CF911F910F91FF900895482F6AE00E94F1
:1030A00024B4282F30E084E0220F331F8A95E1F703
:1030B000842F0E9424B4892F820F0895CF93DF9329
:1030C000EC018091410A9091420A8836910559F5A8
:1030D00086E29DE168E670E00E9464A486E29DE1DC
:1030E00060E00E94E6A488810E944D18682F70E07D
:1030F0006F77707086E29DE10E94E6A489810E944C
:103100004D18682F86E29DE10E94E6A48A810E9404
:103110004D18682F86E29DE10E94E6A48B810E94F3
:103120004D18682F2DC08F36910509F04AC086E2F0
:103130009DE16FE670E00E9464A486E29DE160E09C
:103140000E94E6A488810E944D18682F606886E27C
:103150009DE10E94E6A489810E944D18682F86E2B5
:103160009DE10E94E6A48A810E944D18682F86E2A4
:103170009DE10E94E6A48B810E944D18682F686033
:1031800086E29DE10E94E6A48C810E944D18682F82
:1031900086E29DE10E94E6A48D810E944D18682F71
:1031A00086E29DE10E94E6A48E818E510E944D1818
:1031B000682F86E29DE10E94E6A486E29DE10E94DE
:1031C00029A5DF91CF91089588E690E09093420A77
:1031D0008093410A86E29DE168E670E00E9464A463
:1031E00086E29DE160E00E94E6A486E29DE10E9405
:1031F00029A58823D9F08FE690E09093420A809326
:10320000410A86E29DE16FE670E00E9464A486E2D6
:103210009DE160E00E94E6A486E29DE10E9429A56E
:10322000882321F01092420A1092410A08951F93B8
:10323000CF93DF93EC016091410A7091420A6115CE
:10324000710509F470C086E29DE10E9464A486E2E3
:103250009DE160E00E94E6A486E29DE10E9429A52E
:103260006091410A7091420A86E29DE147E050E098
:103270000E943AA586E29DE10E9477A4282F2F772D
:1032800022952F701AE0219F900111248F70820FD8
:10329000888386E29DE10E9477A4282F22952F70D3
:1032A000219F900111248F70820F898386E29DE116
:1032B0000E9477A4282F2F7322952F70219F9001B1
:1032C00011248F70820F8A8386E29DE10E9477A489
:1032D00087708B8386E29DE10E9477A4282F229538
:1032E0002F70219F900111248F70820F8C8386E2B2
:1032F0009DE10E9477A4282F2F7122952F70219F86
:10330000900111248F70820F8D8386E29DE10E94CF
:1033100077A4282F2F70225E82958F70819FC00125
:103320001124280F2E83DF91CF911F9108950F93C1
:103330001F93DF93CF93CDB7DEB727970FB6F894DF
:10334000DEBF0FBECDBF8E010F5F1F4FA8010E94D1
:10335000C387C8010E945E1827960FB6F894DEBF97
:103360000FBECDBFCF91DF911F910F9108950F93A5
:103370001F93DF93CF93CDB7DEB727970FB6F8949F
:10338000DEBF0FBECDBF8E010F5F1F4FC8010E9471
:103390001719C8010E94098927960FB6F894DEBF55
:1033A0000FBECDBFCF91DF911F910F91089586E29F
:1033B0009DE10E943EA508958091460A61E00E9429
:1033C0009BAA78940895FF920F931F93082F162FAE
:1033D000F42EF8948091460A60E00E949BAA1F7127
:1033E000102B1EBD0DB407FEFDCFFEBC0DB407FEB5
:1033F000FDCF0E94DC191F910F91FF9008951F933C
:10340000182F282F30E0207630708091470A90E006
:103410002817390799F080EA6FE143E00E94E31929
:10342000412F40764093470A50E085E055954795F7
:103430008A95E1F780E86FE10E94E3191F910895F2
:103440000F931F93182F062F0E94FF1980E4612FFE
:10345000402F0E94E3191F910F9108950F931F931E
:10346000182F072F0E94201A812F8F5F602F0E9434
:10347000201A1F910F9108950F931F93182F062F55
:10348000F8948091460A60E00E949BAA802F8F7179
:10349000812B8EBD0DB407FEFDCF1EBC0DB407FE03
:1034A000FDCF07FF04C01EBC0DB407FEFDCF1EB547
:1034B0000E94DC19812F1F910F9108951F93182FDF
:1034C0000E94FF1980E0612F0E943C1A1F9108950D
:1034D000882311F41092450A8091450A882341F40B
:1034E00088E30E945E1A682F6E7F88E30E94201A8C
:1034F00008951F93182F88E30E945E1A682F616059
:1035000088E30E94201A112319F481E08093450A70
:103510001F91089584ED61E10E94201A82ED61E01F
:103520000E94201A8AEE0E945E1A80FDFBCF82ED77
:1035300060E00E94201A89ED0E945E1A90E0969544
:10354000879596958795817008950F931F93CF93D4
:10355000DF93EC018B01F8948091460A60E00E94B1
:103560009BAA8AE38EBD0DB407FEFDCF09C01EBC29
:103570000DB407FEFDCF8EB5F80181938F01219721
:103580002097A9F70E94DC19DF91CF911F910F912D
:1035900008950F931F93DF93CF9300D000D000D0F6
:1035A000CDB7DEB789E30E945E1A882319F400E0E4
:1035B00010E048C06091480A7091490A80E00E947A
:1035C0002E1A86E090E0BE016F5F7F4F0E94A51A21
:1035D00089819A819093490A8093480A2B813C8182
:1035E000E091430AF091440A8D8187FD03C000E019
:1035F00010E00EC0245030408F01015010402017C1
:10360000310708F48901C80160E97AE00E94A51A2F
:10361000F801E057F54F10826091480A7091490A0D
:103620008CE06130780724F08CE06FEF7BE003C022
:10363000615070408CE00E942E1A80E86EE140E4F8
:103640000E94E319C80126960FB6F894DEBF0FBE9C
:10365000CDBFCF91DF911F910F9108950F931F93CD
:10366000CF93DF938C01EB01F8948091460A60E0E0
:103670000E949BAA8AE78EBD0DB407FEFDCF08C04D
:1036800088818EBD0DB407FEFDCF219601501040FC
:1036900001151105A9F70E94DC19DF91CF911F9147
:1036A0000F910895CF93DF93EC018CE10E945E1A95
:1036B00081FF0FC080E86FE140E80E94E31980EAD3
:1036C0006FE140E80E94E31980EA6CE142E00E9469
:1036D000E31982E060E07CE00E942E1ABE01605097
:1036E000744F86E00E942E1A8AE760E040E00E9454
:1036F000E319CE0160E97AE00E942E1B80E86FE1B9
:1037000048E00E94E319DF91CF91089584E061E0E1
:103710000E941EAA84E061E00E949BAA85E061E00D
:103720000E941EAA87E061E00E941EAA86E060E077
:103730000E941EAA85E061E00E949BAA85E060E0ED
:103740000E949BAA87E060E00E949BAA80E58CBD56
:103750008DB581608DBD0895EF92FF920F931F93F9
:10376000CF93DF93EB01142F9093440A8093430A85
:103770000CB406FC02C00E94861B1093460A812FDF
:1037800061E00E941EAA0E94DC198FEF60E04FEFFB
:103790000E94E31962E070E080E090E00E94D0A80F
:1037A0000E94C2A87B018C0180E395E7A0E0B0E015
:1037B000E80EF91E0A1F1B1F09C00E94C2A8E616C8
:1037C000F7060807190710F480E084C080E06DE177
:1037D0000E943C1A882389F31092490A1092480AE1
:1037E00088E060E070E00E942E1A8CE060E070E0FB
:1037F0000E942E1A8AE06FEF7BE00E942E1A84E06E
:1038000060E07CE00E942E1A86E06FEF71E10E947A
:103810002E1A80E00E94791A88E26FE370E30E941A
:103820002E1A80E369EF77EF0E942E1A80EC6DE08C
:103830000E94201A81EC60E00E94201A80E862EC6D
:1038400042E30E94E31986EC62E17CE00E942E1ABA
:1038500084EC62E10E94201A8AEC6AEE75E00E9414
:103860002E1A84EE68810E94201A85EE69810E94DA
:10387000201A82EE6A810E94201A83EE6B810E94D8
:10388000201A80EE6C810E94201A81EE6D810E94C8
:10389000201A84ED60E10E94201A86ED60E071E05C
:1038A0000E942E1A8AEE0E945E1A80FDFBCF8FE1E5
:1038B0000E94FF1980E86BE140EC0E94E31980E868
:1038C0006FE144E00E94E31982E70E945E1A8630AD
:1038D00008F08F5FDF91CF911F910F91FF90EF90D4
:1038E0000895EF92FF920F931F93CF93DF93FC0104
:1038F000EB018A01790110928C0A009729F080E788
:103900009AE0BF010E949F8E209719F0CE010E947D
:1039100004810115110529F084E89AE0B8010E949C
:103920009F8EE114F10429F084E79AE0B7010E9428
:103930009F8E0E94687F10928F0A10928E0A81E0FB
:10394000DF91CF911F910F91FF90EF900895AF926B
:10395000BF92CF92DF92FF920F931F93CF93DF938B
:103960008C01EB01F42E10928C0A38E341E050E018
:1039700060E070E018C0832F90E0FC01B3E0F595A3
:10398000E795BA95E1F7E65BF54F877090705A01BD
:103990006B0104C0AA0CBB1CCC1CDD1C8A95D2F7A1
:1039A00020812A292083315031F78AE69AE0BE012E
:1039B0000E94978EC8016AE67AE04F2D0E94AC1BE8
:1039C000DF91CF911F910F91FF90DF90CF90BF902B
:1039D000AF900895CF92DF92EF92FF920F931F93D3
:1039E000DF93CF93CDB7DEB7EB84FC84CD84DE8448
:1039F000DE011F9601C0D801F6018491882309F4E5
:103A0000BCC00894C11CD11C843209F099C0F601D5
:103A10000894C11CD11C8491863409F45FC087349A
:103A200034F4843469F0853409F08AC06EC08C3473
:103A3000C9F1833509F445C0883409F081C00DC04F
:103A40008D010E5F1F4FF701668177818D919C91EB
:103A50004AE050E00E940B0F7EC02C91822F9927E4
:103A600087FD909514E0959587951A95E1F78F70ED
:103A70002F702A300CF0295F8A300CF0895F8D019D
:103A80000E5F1F4FF701A681B781805DFD01819315
:103A9000205D11962C933196D7011796FC93EE93E7
:103AA0001697A9CF8D010C5F1F4F6D917D918D9160
:103AB0009C91F701468157812AE030E00E94490F2E
:103AC0004AC08D010E5F1F4F6D917C91D7011696F4
:103AD0008D919C9117970E947D0E3DC08D010E5FC8
:103AE0001F4F2D913C910AC0D7011696ED91FC9184
:103AF000179781931796FC93EE931697F9012F5F12
:103B00003F4F8491882381F776CF8D010E5F1F4F41
:103B10002D913C910AC0D7011696ED91FC91179713
:103B200081931796FC93EE931697F999FECF32BDC9
:103B300021BDF89A80B52F5F3F4F882361F75BCF97
:103B4000F70126813781F90181939F01F7013783BE
:103B500026838D0150CFD70116968D919C91179792
:103B6000FC0101900020E9F73197E81BF90B8E0F5B
:103B70009F1FF701978386833ECFCF91DF911F91DF
:103B80000F91FF90EF90DF90CF9008950F931F93C8
:103B90008C01FC01848560E00E949BAA81E090E09A
:103BA0000E9429A9F801848561E00E949BAA81E016
:103BB00090E00E9429A9F801848560E00E949BAAF8
:103BC00084E690E00E9429A91F910F910895CF9259
:103BD000DF92EF92FF920F931F936C01062F86E204
:103BE000E82E8DE1F82EC701F60164810E945AA4E7
:103BF00010E0F601808590E0082B192BC701602F9B
:103C00000E94E6A4C7010E9429A51F910F91FF9071
:103C1000EF90DF90CF900895FF920F931F938C0148
:103C2000F62E64600E94E71D81E090E00E9429A9C1
:103C30008BEFF822C8016F2D0E94E71D82E390E010
:103C40000E9429A91F910F91FF900895FC0188E01F
:103C50008087CF0160E00E94E71D0895FC01108677
:103C600060E00E94E71D0895CF92DF92EF92FF92ED
:103C70000F931F93CF93DF937C01D62EFC01818598
:103C8000813039F4C7010E94E71DC7016D2D0E94E4
:103C90000C1EF70181858823F9F48701C0E0D0E08C
:103CA000CD2CDD24F801858561E00E941EAAB601B5
:103CB0000C2E02C0759567950A94E2F76170F801C1
:103CC00085850E949BAA21960F5F1F4FC430D105A6
:103CD00049F7C7010E94C61DDF91CF911F910F9137
:103CE000FF90EF90DF90CF9008950F931F93CF93A5
:103CF000DF93EC01062F142F8985813061F4607FFA
:103D0000642BCE010E94341E602F6295607F612B70
:103D1000CE010E94341E89858823C1F48A85612FD3
:103D20000E949BAA8B858F3F19F060E00E949BAA9E
:103D3000602F70E094E0759567959A95E1F7CE0154
:103D40000E94341ECE01602F0E94341EDF91CF915D
:103D50001F910F91089541E00E94751E81E090E04F
:103D6000089540E00E94751E0895EF92FF920F9310
:103D70001F93CF93DF938C017A016770660F660FF4
:103D8000660F60640E94B11EC0E0D0E0D801ED91E2
:103D9000FC91D701AC0FBD1F0190F081E02DC8014F
:103DA0006C9109952196C830D10581F7DF91CF91AB
:103DB0001F910F91FF90EF900895FC0166896E7F2F
:103DC000668B68600E94B11E0895FC016689862F8B
:103DD0008460868B6C60CF010E94B11E0895DF93D2
:103DE000CF93CDB7DEB728970FB6F894DEBF0FBEDE
:103DF000CDBF9C01FE013196AFEBB9E088E00D909C
:103E000001928150E1F7F9018185813021F48681A9
:103E1000841748F406C0882331F4F901818D4817CE
:103E200010F0482F4150E42FF0E0EE0FFF1FEC0F91
:103E3000FD1F8181680F6068C9010E94B11E28962C
:103E40000FB6F894DEBF0FBECDBFCF91DF910895BE
:103E500062E00E94B11E80ED97E00E9429A90895BA
:103E600061E00E94B11E80ED97E00E9429A90895AB
:103E7000CF93DF93EC018985813009F044C088E05D
:103E80008D8B62E370E080E090E00E94D0A8CE01CC
:103E900068850E94E71D68EE73E080E090E00E9474
:103EA000D0A8CE0160E30E94341E84E991E10E9413
:103EB00029A9CE0160E30E94341E84E991E10E94A9
:103EC00029A9CE0160E30E94341E86E990E00E9499
:103ED00029A9CE0160E20E94341E6D896062CE0184
:103EE0000E94B11E84E08E8BCE010E94E51ECE01A1
:103EF0000E94301F82E08F8BCE0166E00E94B11ECF
:103F0000CE010E94281F8985882309F061C08D8910
:103F100088608D8B82E0898F1A8E80E593EC0E94F9
:103F200029A98A8560E00E949BAA8C8560E00E9496
:103F30009BAA8B858F3F19F060E00E949BAA6D8938
:103F400064FD1DC0CE0163E00E94341E84E991E14E
:103F50000E9429A9CE0163E00E94341E84E991E108
:103F60000E9429A9CE0163E00E94341E86E990E0F8
:103F70000E9429A9CE0162E00E94341E16C0606230
:103F8000CE010E94B11E84E991E10E9429A96D89A8
:103F90006062CE010E94B11E86E990E00E9429A9CC
:103FA0006D896062CE010E94B11E6D896062CE0192
:103FB0000E94B11E84E08E8BCE010E94E51ECE01D0
:103FC0000E94301F82E08F8BCE0166E00E94B11EFE
:103FD000DF91CF9108956F927F928F92AF92CF929F
:103FE000EF920F93DF93CF93CDB7DEB73C01FC0187
:103FF000428723870487E586C686A786808A8C85C4
:10400000818B8D85828B8E85838B8F85848B86E2D9
:104010009DE10E943EA5F301118686E29DE167E2E3
:1040200070E00E9464A486E29DE160E00E94E6A444
:1040300086E29DE10E9429A5882319F481E0F3011D
:104040008187F3018185813049F487E2848380E1AF
:10405000858382E08683178288E08087F3018185EB
:10406000882381F4828561E00E941EAAF301838582
:104070008F3F19F061E00E941EAAF301848561E080
:104080000E941EAA88E0F301858BCF91DF910F91EA
:10409000EF90CF90AF908F907F906F9008959C019C
:1040A000F999FECF32BD21BDF89A80B50895FC0183
:1040B000A681B7816D93B783A68381E090E00895D0
:1040C0001F920F920FB60F920BB60F9211242F93DF
:1040D0003F934F935F936F937F938F939F93AF9390
:1040E000BF93EF93FF9380916D108F5F80936D105E
:1040F00080916D10803128F0E0916B10F0916C1080
:104100000995FF91EF91BF91AF919F918F917F9111
:104110006F915F914F913F912F910F900BBE0F9038
:104120000FBE0F901F9018958091361890E023E0F5
:10413000880F991F2A95E1F7895C974EE7E3F8E12C
:1041400003C0158214823896E817F907D0F3089552
:1041500089E18093091010920C1010921F10109298
:1041600026101092281010924310109242108BECDF
:1041700099E090934110809340100895AF92BF92C0
:10418000CF92DF92EF92FF920F931F9380912B09B2
:10419000882309F445C02091EC15922F991F992787
:1041A000991F8091ED158370880F892BC9F5809137
:1041B000EB1585FD35C022FF33C00E94168A5B01D6
:1041C0006C018091EC158B7F8093EC1580916E10C3
:1041D000882329F48CE890E061E00E94EB470E947C
:1041E00091687B018C016115710581059105C1F014
:1041F0000E94E989C801B7010E94971921E8A21617
:1042000028ECB2062FE4C2062AE3D20648F40E9444
:10421000168A6158784C8F449A4310F00E942845C2
:104220001F910F91FF90EF90DF90CF90BF90AF90D4
:104230000895EF92FF920F931F938091EB1585FDE8
:10424000B4C08091EC1583FFB0C0877F8093EC15DC
:1042500080916E10882359F48BE197E16FE041E083
:104260000E94EF1E8BE197E164E00E94AB1E0E946A
:10427000C2A87B018C018091ED1582FF09C00E94CC
:104280005555882329F08091ED158B7F8093ED158E
:104290008CE79AE00E9404830E94C91A0E9451830D
:1042A0008CE79AE00E94C685882361F40E94C2A828
:1042B0006E197F09800B910B683C71058105910592
:1042C00058F34CC08091EC158F778093EC1580915A
:1042D000ED158C7F8093ED1506C02F772093EC159C
:1042E0003B603093ED159091EC15991F9927991F1C
:1042F0002091ED15822F8370880F892B09F055C00E
:10430000277F2093ED150E94C2A87B018C018BE9C9
:1043100090E060E00E9440178823A1F080E091E0E7
:1043200068E87AE00E94808E88E89AE00E94048320
:104330000E94C91A0E94518388E89AE00E94C685AB
:10434000882399F50E94C2A86E197F09800B910BF2
:10435000683C710581059105D0F222C02091EC15D1
:10436000922F991F9927991F3091ED15832F8370F4
:10437000880F892B8F5F8770982F9795992797952E
:104380002F77292B2093EC15982F96953C7F392B6E
:10439000932F98609093ED15873009F49ECFA3CFAB
:1043A0008091ED1588608093ED151F910F91FF901E
:1043B000EF900895EF92FF920F931F938C0188E086
:1043C00090E166E071E040E00E94429F30E1E32E20
:1043D00037E1F32EC701B8010E947D0E0BE116E113
:1043E000C80161E279E00E947D0EC801B7010E9418
:1043F000670EC8016AEA70E00E94330E1F910F91A8
:10440000FF90EF900895CF93DF93EC0180914D09D9
:10441000882361F18091EB1587FF28C0CE0168E009
:1044200071E043E050E00E94840E009771F488E050
:1044300090E161E279E040E00E94429F8823B1F080
:1044400086E290E10E94EF9711C0CE010E94DA212E
:1044500088E090E16BE176E10E94239F882331F0B0
:1044600088E090E16BE176E10E94009FDF91CF91BF
:1044700008953F924F925F926F927F928F929F9298
:10448000AF92BF92CF92DF92EF92FF920F931F9362
:10449000DF93CF93CDB7DEB7AA970FB6F894DEBF00
:1044A0000FBECDBF382E5A016B0128013901809112
:1044B0004D09882309F474C6CB01BA0120E831E51F
:1044C00041E050E00E9457B4CA01B9014BE156E106
:1044D0002AE030E00E94490F8BE196E10E94DA2148
:1044E0008091EB1587FF5CC688E090E166E071E0A3
:1044F00040E00E94429F88E090E161E279E040E084
:104500000E94429F882391F488E090E161E279E083
:1045100041E00E94049F882309F442C610925F1074
:10452000109260101092611010926210198A1B8A0A
:10453000188A1F8684E09AE09E878D878E010F5E21
:104540001F4FABE18A2EA6E19A2EC801B40142E4C6
:104550000E94719DF82E4BA15CA16DA17EA1C801A6
:104560000E940D93FF2009F41BC6332009F047C0B9
:104570002DB73EB7265130400FB6F8943EBF0FBE60
:104580002DBFEDB7FEB73196ADB7BEB712969C9270
:104590008E9211978CE091E0938382838091E81949
:1045A000848315828091E719868317828091E919A7
:1045B0009091EA1991878087A286B386C486D586B2
:1045C0008091321A9091331AA091341AB091351A11
:1045D00086879787A08BB18B80912E1A90912F1A86
:1045E000A091301AB091311A828B938BA48BB58B2A
:1045F0000E946E0F2DB73EB72A5E3F4F59C334E07D
:10460000331609F03FC04DB75EB7405150400FB66A
:10461000F8945EBF0FBE4DBFEDB7FEB73196ADB794
:10462000BEB712969C928E92119784E291E093838A
:1046300082838091361A9091371AA091381AB091DE
:10464000391A84839583A683B78380914A1A9091FF
:104650004B1AA0914C1AB0914D1AA6019501281B36
:10466000390B4A0B5B0B2087318742875387A4861F
:10467000B586C686D7860E946E0F4DB75EB7405F7F
:104680005F4F68C352E0351671F580910D16909119
:104690000E16A0910F16B09110168A159B05AC0549
:1046A000BD0528F020E030E040E050E006C0A60163
:1046B0009501281B390B4A0B5B0B8DB79EB70C97E6
:1046C0000FB6F8949EBF0FBE8DBFEDB7FEB7319603
:1046D0008BE196E1ADB7BEB712969C938E9311977E
:1046E00088E391E030C031E03316C1F580910916BE
:1046F00090910A16A0910B16B0910C168A159B0585
:10470000AC05BD0528F020E030E040E050E006C0F8
:10471000A6019501281B390B4A0B5B0B8DB79EB781
:104720000C970FB6F8949EBF0FBE8DBFEDB7FEB7C6
:1047300031968BE196E1ADB7BEB712969C938E93FE
:1047400011978AE491E0938382832483358346839F
:104750005783A086B186C286D38603C133E0331661
:1047600029F54DB75EB74A5050400FB6F8945EBF7A
:104770000FBE4DBFEDB7FEB73196ADB7BEB71296BF
:104780009C928E9211978CE591E093838283809125
:10479000400984831582A682B782C086D1860E9492
:1047A0006E0F2DB73EB7265F3F4F82C237E03316FC
:1047B00009F05BC04DB75EB74A5150400FB6F89450
:1047C0005EBF0FBE4DBFEDB7FEB73196ADB7BEB7FA
:1047D00012969C928E9211978DE691E0938382833C
:1047E00087E090E095838483A682B782C086D186D5
:1047F0008091361A9091371AA091381AB091391ACF
:1048000082879387A487B58780914A1A90914B1A23
:10481000A0914C1AB0914D1AA6019501281B390B95
:104820004A0B5B0B26873787408B518B80913A1A56
:1048300090913B1AA0913C1AB0913D1A828B938BB8
:10484000A48BB58B80913E1A90913F1AA091401A8B
:10485000B091411A868B978BA08FB18F0E946E0FFB
:104860004DB75EB7465E5F4F75C258E0351651F5DD
:104870008DB79EB70E970FB6F8949EBF0FBE8DBF33
:10488000EDB7FEB73196ADB7BEB712969C928E9239
:1048900011978EE891E09383828388E090E095837E
:1048A0008483A682B782C086D18680913E1A909179
:1048B0003F1AA091401AB091411A82879387A4872A
:1048C000B5876CC135E0331619F54DB75EB74C505E
:1048D00050400FB6F8945EBF0FBE4DBFEDB7FEB7A8
:1048E0003196ADB7BEB712969C928E92119783EA1D
:1048F00091E09383828385E090E095838483A68210
:10490000B782C086D1868091EB158695869526C0A4
:1049100036E0331669F54DB75EB74C5050400FB6D0
:10492000F8945EBF0FBE4DBFEDB7FEB731968BE179
:1049300096E1ADB7BEB712969C938E93119787EB15
:1049400091E09383828386E090E095838483A682BE
:10495000B782C086D1868091EB158695817082875B
:1049600013860E946E0F2DB73EB7245F3F4FA0C144
:1049700030E3331631F54DB75EB74C5050400FB6AB
:10498000F8945EBF0FBE4DBFEDB7FEB731968BE119
:1049900096E1ADB7BEB712969C938E9311978BECB0
:1049A00091E09383828380E390E095838483A68261
:1049B000B782C086D1868091EB15869586958695BF
:1049C000CDCF31E3331629F54DB75EB74C5050408B
:1049D0000FB6F8945EBF0FBE4DBFEDB7FEB7319670
:1049E0008BE196E1ADB7BEB712969C938E9311976B
:1049F0008FED91E09383828381E390E095838483BC
:104A0000A682B782C086D1868091EB1582958F7081
:104A1000A5CF32E33316D9F44DB75EB740515040BD
:104A20000FB6F8945EBF0FBE4DBFEDB7FEB731961F
:104A30008BE196E1ADB7BEB712969C938E9311971A
:104A400083EF91E09383828382E390E03BC033E382
:104A50003316D9F44DB75EB7405150400FB6F894B5
:104A60005EBF0FBE4DBFEDB7FEB731968BE196E14D
:104A7000ADB7BEB712969C938E9311978DE092E0DE
:104A80009383828383E390E04AC034E3331651F585
:104A90004DB75EB7405150400FB6F8945EBF0FBEA1
:104AA0004DBFEDB7FEB731968BE196E1ADB7BEB71E
:104AB00012969C938E93119787E292E09383828360
:104AC00084E390E095838483A682B782C086D186F2
:104AD00042865386648675868091EB158695869509
:104AE00086952BC035E3331691F54DB75EB740512F
:104AF00050400FB6F8945EBF0FBE4DBFEDB7FEB786
:104B000031968BE196E1ADB7BEB712969C938E932A
:104B1000119780E492E09383828385E390E095830C
:104B20008483A682B782C086D186428653866486F5
:104B300075868091EB1582958F70817086871786B8
:104B40000E946E0F2DB73EB7205F3F4FB1C036E3D6
:104B5000331659F54DB75EB74E5050400FB6F89426
:104B60005EBF0FBE4DBFEDB7FEB731968BE196E14C
:104B7000ADB7BEB712969C938E9311978AE592E0DB
:104B80009383828386E390E095838483A682B782B1
:104B9000C086D18642865386648675860E946E0FD3
:104BA0002DB73EB7225F3F4F83C037E3331691F5F1
:104BB0004DB75EB7425150400FB6F8945EBF0FBE7E
:104BC0004DBFEDB7FEB731968BE196E1ADB7BEB7FD
:104BD00012969C938E93119782E792E0938382833F
:104BE00087E390E095838483A682B782C086D186CE
:104BF00042865386648675868091EB1586958695E8
:104C00008170868717868091EB1586958170808BE1
:104C1000118A48C039E0331609F050C06091261A55
:104C20007091271A8091281A9091291AF3E0EF2E9B
:104C3000F12CEC0EFD1E44E022E087010E94ED0BFA
:104C40004DB75EB7425150400FB6F8945EBF0FBEED
:104C50004DBFEDB7FEB731968BE196E1ADB7BEB76C
:104C600012969C938E9311978FE892E093838283A0
:104C700089E090E095838483A682B782C086D1863E
:104C80008091FB198287138680912E1A90912F1A9A
:104C9000A091301AB091311A84879587A687B7877B
:104CA000F18AE08A0E946E0F2DB73EB72E5E3F4F0D
:104CB0000FB6F8943EBF0FBE2DBF51C030E1331682
:104CC00009F04DC04DB75EB7445150400FB6F8944F
:104CD0005EBF0FBE4DBFEDB7FEB731968BE196E1DB
:104CE000ADB7BEB712969C938E9311978BEA92E064
:104CF0009383828380E190E095838483A682B78248
:104D0000C086D1868091FB19828713868091361ADE
:104D10009091371AA091381AB091391A84879587E3
:104D2000A687B78780914A1A90914B1AA0914C1A86
:104D3000B0914D1AA6019501281B390B4A0B5B0B4C
:104D4000208B318B428B538B0E946E0F4DB75EB719
:104D50004C5E5F4F0FB6F8945EBF0FBE4DBF832D04
:104D60008551823008F04BC06091261A7091271A45
:104D70008091281A9091291AE3E0EE2EF12CEC0E86
:104D8000FD1E44E022E087010E94ED0B8DB79EB727
:104D900040970FB6F8949EBF0FBE8DBFEDB7FEB71C
:104DA00031968BE196E1ADB7BEB712969C938E9388
:104DB000119789EC92E09383828334821582A682D4
:104DC000B782C086D1868091FB1982871386809135
:104DD000131A9091141A73E0969587957A95E1F7D6
:104DE00095878487F786E6860E946E0F2DB73EB7BB
:104DF000205F3F4F0FB6F8943EBF0FBE2DBF832DEF
:104E00008851823008F042C04DB75EB742515040E1
:104E10000FB6F8945EBF0FBE4DBFEDB7FEB731962B
:104E20008BE196E1ADB7BEB712969C938E93119726
:104E300084EE92E09383828334821582A682B782C5
:104E4000C086D1868091FB19828713868091121AC1
:104E500090E0880F991F880F991F9587848780910C
:104E60002E1A90912F1AA091301AB091311A86877C
:104E70009787A08BB18B0E946E0F2DB73EB72E5E29
:104E80003F4F0FB6F8943EBF0FBE2DBF832D81510B
:104E9000823020F03AE0331609F047C04DB75EB7D4
:104EA000425150400FB6F8945EBF0FBE4DBFEDB7F4
:104EB000FEB731968BE196E1ADB7BEB712969C93E3
:104EC0008E93119780E093E09383828334821582DE
:104ED000A682B782C086D1868091361A9091371A01
:104EE000A091381AB091391A82879387A487B58721
:104EF00080914A1A90914B1AA0914C1AB0914D1A78
:104F0000A6019501281B390B4A0B5B0B26873787B7
:104F1000408B518B0E946E0F4DB75EB74E5E5F4F58
:104F20000FB6F8945EBF0FBE4DBF53E1351631F595
:104F30008DB79EB70A970FB6F8949EBF0FBE8DBF70
:104F4000EDB7FEB731968BE196E1ADB7BEB71296DD
:104F50009C938E9311978BE193E09383828383E1FB
:104F600090E095838483A682B782C086D1860E9412
:104F70006E0F2DB73EB7265F3F4FD7C034E13316D3
:104F8000E9F54DB75EB7425150400FB6F8945EBF99
:104F90000FBE4DBFEDB7FEB731968BE196E1ADB7D1
:104FA000BEB712969C938E9311978EE293E09383F3
:104FB000828384E190E095838483A682B782C08651
:104FC000D1868091361A9091371AA091381AB091F3
:104FD000391A82879387A487B58780914A1A90915E
:104FE0004B1AA0914C1AB0914D1AA81AB90ACA0AC4
:104FF000DB0AA686B786C08AD18A91C037E133160C
:1050000009F04AC06091261A7091271A8091281AD7
:105010009091291A53E0E52EF12CEC0EFD1E44E090
:1050200022E087010E94ED0B4DB75EB74051504022
:105030000FB6F8945EBF0FBE4DBFEDB7FEB7319609
:105040008BE196E1ADB7BEB712969C938E93119704
:1050500089E493E09383828387E190E0958384835E
:10506000A682B782C086D1868091FB19828713867B
:105070008091131A9091141A43E0969587954A955A
:10508000E1F795878487F786E6860E946E0F2DB735
:105090003EB7205F3F4F49C030E2331609F04AC0A7
:1050A0006091261A7091271A8091281A9091291AD6
:1050B00044E022E08E010D5F1F4F0E94ED0B4DB7C3
:1050C0005EB7425150400FB6F8945EBF0FBE4DBF61
:1050D000EDB7FEB731968BE196E1ADB7BEB712964C
:1050E0009C938E93119786E693E09383828380E26C
:1050F00090E095838483A682B782C086D186809112
:10510000FB19828713868091F61984871586809112
:10511000F419868717868091F319808B118A0E9473
:105120006E0F2DB73EB72E5E3F4F0FB6F8943EBFC1
:105130000FBE2DBF8FEB9EE16BE176E10E948BB03D
:105140008091FD1E9091FE1E009711F481E09FE179
:10515000BE016F5F7F4F681B790B8FEB9EE14AE0CA
:1051600050E00E94B8AFCE010D966BE176E10E944F
:10517000B99F80915F1090916010A0916110B091E3
:1051800062100196A11DB11D80935F109093601075
:10519000A0936110B0936210CE0141960E94759564
:1051A000AA960FB6F894DEBF0FBECDBFCF91DF91A8
:1051B0001F910F91FF90EF90DF90CF90BF90AF9035
:1051C0009F908F907F906F905F904F903F90089549
:1051D000EF92FF920F931F93CF93DF938C017B018C
:1051E000C0E0D0E0D8010D900020E9F71197A01B96
:1051F000B10BF701EC0FFD1FA00FB11F808190E0F4
:10520000BD014AE050E00E940B0FC33029F0C801F5
:1052100066E873E00E94670E2196C430D10511F74D
:10522000DF91CF911F910F91FF90EF9008956F92B2
:105230007F928F929F92AF92BF92CF92DF92EF9226
:10524000FF920F931F93DF93CF93CDB7DEB7659790
:105250000FB6F894DEBF0FBECDBF5C014B013A0123
:105260006E010894C11CD11CC60168E873E00E945D
:10527000A2B1BFE0EB2EF12CEC0EFD1EC701B60172
:105280000E94D3B18E01085F1F4FC801B5010E9473
:10529000A2B1C701B8010E946BB1BC018FEB9EE1C6
:1052A0000E94D1B0C8010E94DEB1C7010E94E4B1E2
:1052B000C6010E94DEB1C30169EA72E00E94330EAA
:1052C0008BE196E1B5010E947D0EC3016BE176E1B1
:1052D0000E94670EC30165EA72E00E94330EC401AA
:1052E0006BE176E10E94F24CEE241FC00E2D10E01F
:1052F000F801E55EF94E808190E06BE176E14AE0ED
:1053000050E00E940B0FC3016BE176E10E94670E33
:105310008091F61590E001970817190729F0C3014D
:1053200063EA72E00E94330EE3948091F615E8166A
:10533000E8F2C30160EA72E00E94330E65960FB690
:10534000F894DEBF0FBECDBFCF91DF911F910F91BB
:10535000FF90EF90DF90CF90BF90AF909F908F9095
:105360007F906F9008953F924F925F926F927F92DD
:105370008F929F92AF92BF92CF92DF92EF92FF9265
:105380000F931F93DF93CF93CDB7DEB7CD5AD040A5
:105390000FB6F894DEBF0FBECDBF382E6A017B0179
:1053A0008FEB9EE160E973E00E94D7AF8091FD1E14
:1053B0009091FE1E009711F481E09FE1BE016F5FA6
:1053C0007F4F681B790B8FEB9EE14AE050E00E9413
:1053D000B8AF9091EC15991F9927991F8091ED1501
:1053E0008370880F892B21F014E0F12E0C943E324B
:1053F000FE0133968DE0DF011D928A95E9F78FEB70
:105400009EE16CE973E00E94D7AF8091FD1E909100
:10541000FE1E009711F481E09FE1BE016F5F7F4F98
:10542000681B790B8FEB9EE14AE050E00E94B8AF19
:105430000E94C2A8609363107093641080936510FB
:10544000909366108FE690E167E972E00E943E0E4D
:10545000B2E03B16D9F0B31530F0332069F0E1E04B
:105460003E1649F50EC0F4E03F16D1F03F1698F015
:1054700085E0381601F519C08BE196E167EA73E023
:1054800018C08BE196E16CEA73E013C08BE196E102
:1054900061EB73E00EC08BE196E166EB73E009C04F
:1054A0008BE196E16BEB73E004C08BE196E160EC7D
:1054B00073E00E947D0E0BE116E18FE690E1B801EA
:1054C0000E94670E00D000D000D0EDB7FEB7319635
:1054D000ADB7BEB712961C930E93119785EC93E06F
:1054E000938382838CE099E0958384830E946E0F7E
:1054F000EDB7FEB736960FB6F894FEBF0FBEEDBF00
:105500008FE690E1B8010E94670EEAE6FAE0DE015C
:105510001396808182958F708A3010F4805D01C06F
:10552000895C8C9380818F708A3010F4805D01C01B
:10553000895C11968C931197319612968AE0E03728
:10554000F80739F78FE690E1BE016D5F7F4F0E944B
:10555000670E8FE690E164E972E00E94330E92E0FC
:10556000391609F4A5C1931540F0332009F4D7C0CA
:10557000A1E03A1609F0B7C6BCC3B3E03B1609F484
:1055800021C3E5E03E1609F0AEC6C114D104E10422
:10559000F10461F40E949D5220E831E541E050E0C1
:1055A0000E9457B4C901DA016C017D018FE690E1D8
:1055B00062E972E00E94330EC6016BE176E14AE0D7
:1055C00050E00E940B0F8BE196E10E94DA211C8AC9
:1055D0001E8A1B8A1A8A84E09AE0998B888B8FEB4B
:1055E0009EE16BE176E10E948BB088E090E16BE197
:1055F00076E10E94239F882359F41092571010924D
:1056000058101092591010925A10B3E0FB2E6CC62D
:105610008E010C5E1F4FC8016BE176E141E00E94F4
:10562000719DBB24CC24DD247601ABE16A2EA6E17A
:105630007A2EFFE68F2EF0E19F2EC8016BE176E116
:105640004FEF50E020E030E00E948E9818161906C7
:1056500074F0C8010E94759510925710109258105E
:105660001092591010925A10E2E0FE2E51C0109282
:1056700019170894C11CD11CE11CF11C8091571012
:1056800090915810A0915910B0915A108C159D0509
:10569000AE05BF0590F6BB2031F08FE690E160E9E2
:1056A00072E00E94330ED4010D900020E9F7F3015F
:1056B00001900020E9F73197EB51F641EA0FFB1F0B
:1056C000ED56F041E95EF34038F0CE0144960E9479
:1056D0007595FF24F3941CC08FE690E16BE176E1B1
:1056E0000E94670E8091571090915810A091591008
:1056F000B0915A100196A11DB11D8093571090933F
:105700005810A0935910B0935A10BB24B39495CF5E
:105710008FE690E16DE872E00E94330EE5C577EA0E
:10572000872E74E0972EAA24BB24F501E75DF64F7F
:105730008081DA2C94E1A91689F0A7E2AA1671F00B
:10574000B3E1AB1659F0E6E2AE1641F0F1E1AF1667
:1057500029F0E82EFF2400E010E007C00E945F8BD4
:105760007C010027F7FC0095102F8EE1D81669F414
:105770008091F5158C3A09F449C062E0EE0CFF1CEB
:10578000001F111F6A95D1F70AC090E1D916F1F1F7
:10579000AAE1DA1621F48091EC1581FD37C08091E1
:1057A0002417813021F48D2D8B51823078F18BE1DB
:1057B00096E1B40145E050E00E94EC8A8FE690E16A
:1057C0006BE872E00E94330E8FE690E16BE176E1C8
:1057D0000E94670E8FE690E168E872E00E94330E47
:1057E000C7016BE176E14AE050E00E940B0F8FE6C3
:1057F00090E16BE176E10E94670EBBE4DB1631F0CD
:105800008FE690E166E872E00E94330E0894A11CD6
:10581000B11CE5E0F0E08E0E9F1EFCE4AF16B10473
:1058200009F083CF8FE690E16DE772E00E94330EBE
:105830000E94975190934910809348106BE176E154
:105840004AE050E00E940B0F8FE690E16BE176E1B9
:105850000E94670E8FE690E164E772E00E94330ECB
:1058600085E090E06BE176E14AE050E00E940B0FAA
:105870008FE690E16BE176E10E94670E8FE690E1A2
:105880006CE672E00E94330E8091F51590E06BE1BA
:1058900076E14AE050E00E940B0F8FE690E16BE169
:1058A00076E10E94670E8FE690E16AE672E019C524
:1058B0008FE690E161E672E00E94330E8091351828
:1058C00090E06BE176E14AE050E00E940B0F8FE63A
:1058D00090E16BE176E10E94670E8FE690E165E56D
:1058E00072E00E94330E8091F61590E06BE176E154
:1058F0004AE050E00E940B0F8FE690E16BE176E109
:105900000E94670E8FE690E16DE472E00E94330E14
:1059100080E190E06BE176E14AE050E00E940B0FFD
:105920008FE690E16BE176E10E94670E8FE690E1F1
:1059300064E472E00E94330E84E090E06BE176E173
:105940004AE050E00E940B0F8FE690E16BE176E1B8
:105950000E94670E8FE690E169E372E00E94330EC9
:1059600084E190E06BE176E14AE050E00E940B0FA9
:105970008FE690E16BE176E10E94670E8FE690E1A1
:1059800061E372E00E94330EFF245EE2C52ED12C4B
:10599000CC0EDD1E42E3442E512C4C0E5D1E38E32E
:1059A000632E712C6C0E7D1E5E010894A11CB11C2F
:1059B0002AE9822E912C8C0E9D1EFAC08F2DB601E5
:1059C0000E9419588EA582958370833039F489A975
:1059D000823020F0CE01C0960E94B056D6011C91B4
:1059E00011960C918FE690E16FE272E00E94330E07
:1059F000812F90E06BE176E14AE050E00E940B0FCE
:105A00008FE690E16BE176E10E94670E8FE690E110
:105A10006DE272E00E94330E802F90E06BE176E140
:105A20004AE050E00E940B0F8FE690E16BE176E1D7
:105A30000E94670E8FE690E16BE272E00E94330EE7
:105A400088A990E06BE176E14AE050E00E940B0FFC
:105A50008FE690E16BE176E10E94670E8FE690E1C0
:105A600069E272E00E94330E89A990E06BE176E171
:105A70004AE050E00E940B0F8FE690E16BE176E187
:105A80000E94670E8FE690E166E272E00E94330E9C
:105A90008201F801819191918F016BE176E14AE0F9
:105AA00050E00E940B0F8FE690E16BE176E10E94DF
:105AB000670E8FE690E164E272E00E94330E0615F5
:105AC000170539F788AD99AD6BE176E14AE050E012
:105AD0000E940B0F8FE690E16BE176E10E94670E6A
